:100000000C94DF0B0C94170C0C94170C0C94170C1D
:100010000C94170C0C94170C0C94170C0C94170CD4
:100020000C94170C0C94170C0C94D21C0C948C1B75
:100030000C942E260C94170C0C94170C0C94170C83
:100040000C94170C0C94170C0C94170C0C94170CA4
:100050000C94170C0C94D01B0C94170C0C94170CCC
:100060000C94170C0C94002D0C94DD2C0C94170C94
:100070000C94170C0C94170C0C94170C0C94170C74
:100080000C94170C0C94170C0C94170C0C94170C64
:100090000C94170C0C94170C0C94170C0C94170C54
:1000A0000C94170C0C94170C0C94170C01083000CE
:1000B000100000E17FC0000800001CC0020000002A
:1000C000007000F7FF0900010800800000800100B7
:1000D000040000F7FF00000000180000800000404E
:1000E00000000CF0720020000000000480000300FB
:1000F000010010F81F0C800000C0011C000000006F
:10010000000780FFFF00108000000820001800405A
:10011000000000FFFF010000800100000800000453
:1001200000C000E0C30002000000400008300010E2
:10013000000001FCFF000800001CC00100000000DE
:10014000700080FFFF0101080080000280010004B0
:10015000000080FFFF0300001800000000004000C6
:10016000000C00820F20000000000480000300014A
:10017000001000FE1F800000C0011C800000000075
:10018000070000FFFF138000000820001800400057
:10019000000084FFFF070080010000000000040051
:1001A000C00020601E020000004000083000100067
:1001B000000100FE0F0800001CC0010800000070D4
:1001C000000080FFFF03080080000200010004001F
:1001D000004000FFFF0F00180000008000400000FA
:1001E0000C0002E078000000000480000300010021
:1001F000100000EF830000C0011C80000000000719
:100200000000C0FFFF8F0000082000000040000039
:10021000000400FFFF07800100000018000400C078
:1002200000200080030000004000080000100000D3
:100230000100C0FB0800001CC00108300000700075
:100240000000E8FFFF0F0080000200000004000033
:10025000400080FFFF031800000080014000000CF8
:1002600000020020070000000480000000010010D0
:1002700000000CBC0000C0011C800003000007004F
:100280000080E0FFFF0700082000000040000000A1
:100290000400E0FFFF870100000018000400C00018
:1002A000200000020000004000080000080080005C
:1002B0000060000C10000EE0000418000038000080
:1002C0000004E0FFFF0340000100000002000020E6
:1002D0000000E0FFFF0F000000C00000000006006B
:1002E0000100100000000002400000200000040097
:1002F00000032000FF70000720C00040C001000084
:100300002000E4FFFF0702080000000000000001D9
:100310000000E0FFFF0700000006001000300008AA
:10032000008000800000100002000001004000007A
:10033000300002803F077000020C00041C00000027
:100340000240E0FFFF2780000000000000001000D6
:100350000000E0FFFF0000006000000100038000DB
:10036000000800000100012000001000000400004F
:10037000032000E07F000720C000400001000020B3
:100380000004C0FFFF030800000000C000000100DF
:100390000000E0FFFF010000060010003000080030
:1003A000800000060010000200000100200000187C
:1003B000000100F003380001060002000000000107
:1003C0002000E1FFFF4100000000000E00080000D7
:1003D0000000E0FFFF01003000800000014000004D
:1003E0000400007E80001000000800800100C000B2
:1003F000080000FCF00108300010000000000800B8
:100400000108C0FFFF010000000070004000000074
:100410000000D8FFFF01800100040000000200205E
:10042000000000FF058000004000000C00000C8070
:100430000000C0393C800003000100100080001063
:10044000800000FFFF010000000007000400000022
:100450000080C1FFFF0018004000000020000002E3
:10046000000000FF030800000400C00000C00008F6
:1004700000001CCE0F083000100000010008000131
:10048000080000FFEF000000007000000000000006
:10049000001880FFEF8001000400004002002000EF
:1004A000000000FE8700004000000C000006400035
:1004B00000E000CF438001800000080040000840B9
:1004C000000084FFFF000000800300000000000027
:1004D000C00000FFFF0D002000000002000001002E
:1004E000000020F81F000002006000103000020031
:1004F000000770F0030C00040040000002400002FE
:100500000020C0FFFF0100001C00000000000000F0
:10051000060080FFFF01000100001000000800003D
:10052000000001FC3F0010000003800003200000D9
:1005300070000778C600400000040000000420009E
:100540000002E8FFFF0100C0010000200000006081
:100550000000C0FFFF00100000000100800000004C
:10056000001000FA7F0001003000080000020000C7
:100570000770001E0F000400400000304000020021
:100580002080F0FFFF00001C0000000200000006B9
:100590000000C0FFFF010100001000000800000083
:1005A000000120F07F1000000380000010000038E0
:1005B000800310C001200000020080010210000032
:1005C0000104E0FFFF00E000000010000000300028
:1005D0000000F0FFFF0B00008000000000000000A2
:1005E000080001C0F7000018000400400000C0012E
:1005F0001C8000E30001001000000C808000000857
:100600002000C0FFFF0107000080001000800100F3
:100610000000F8FFFF070000040000000000004099
:1006200000080000DF00C0002000000200001CC025
:10063000010830001000000100C000080800800020
:100640000200E0FFFF770000000800010018000032
:100650000080E1FFFF0700400000000000000004F0
:10066000800000403C000C000200200000C0011C83
:100670008000030001001000000C80000000082032
:100680000000E0FFFF0700008000108080010000F4
:100690000018C0FFFF070004000000000000400039
:1006A0000800000C10C0002000000200001CC00167
:1006B0000830001001000100C000080000800002A6
:1006C0000000E0FFFF07000008000108180000001C
:1006D0008001E0FFFF0740000000000000000480F0
:1006E000000040FF000C000200200000C0011C8040
:1006F00000030081001000000C80000000082000B2
:10070000000000FFFF0700800010800001000000D3
:100710001800E0FFFF070400000000800040000810
:10072000000004FCC1002000000200001CC0010801
:1007300030001000600100C00008000080000200CE
:10074000000080FFFF070008000108000000008093
:100750000100C4FFFF4300000000001800048000F7
:10076000004000F00F00020020000000011C80008B
:10077000030001007E00000C800000C00820000083
:10078000000080FFFF0780001080000000000018BC
:10079000004080FFFF0700000000800140000800CB
:1007A000000400C00F20000002000000C00108305B
:1007B00000100080FF00C0000800001C00020000C4
:1007C0000000F0FFFF030800010800800000800126
:1007D000000480FFFF0300000000180004800000F8
:1007E0004000000E1F020020000000001C800003DB
:1007F000000100D0FF000C800000C00120000000BC
:10080000000007FFFF8300108000000800001800B0
:10081000400080FFFF000000008001000008000091
:100820000400C03C3C000002000000400410C0C0B6
:100830000402C0E0E0E0E0E0E0C0C08060600410DE
:100840003810040E80020702F0F8F8FFFFFFE3CD36
:100850009EBEBEBEBEBEBE1C808010100303081F1D
:100860003F3FFFFFFFFF3F3F3F3FFFFFFF3FC0C056
:1008700020200C0C0307070340030303202010C0B3
:10088000C0040280E0E0E0E0E0E06060406060041E
:10089000103810040E0402070240E0F0C03FFFFFD2
:1008A000E3CCDE9EDFDFDFDFDFCE801010800303CE
:1008B00008073F7F7807FFFFFFFFBF3F1F1F7FFF36
:1008C000FFCEC0C020200C0C400707070301012009
:1008D0002010C0C00402C0C0C0E0E0606060A08022
:1008E0008080606004103810040E0402070280C08B
:1008F000C53FFFFFE7EECEDFDFDFEFEFF7F3E0808E
:100900008010108003030801071F7FFCF38F7FFF17
:10091000FFFFFF1F1F0F1F7F7F70C0C0200C0C4008
:100920000107070703202020C0C0040280C0C0E0E8
:10093000E06020A0C0C0E08004103810040E041055
:100940000207028F3F7FFFE3CEDFDFDFCFEFF7FB52
:10095000F8F8E0C080801010800303080102071F30
:100960003E7DF3E7DF3FFFFFFFFFCF07070F1F1FAE
:1009700018C0C0200C0C40010101030303202020FB
:10098000C0C0040280C0C0E06080C0C0C0C080049D
:10099000103810040E04100207020E7FFFFFE5DE80
:1009A000DFDFDFCFE7F3F9FCFCF8F0E0C0101080E8
:1009B0000308010E1E3C79FBF7EFDFBF7FFFFFFF4F
:1009C000E7C30103070702C0C003200C0C4001016C
:1009D00001010121012020C0C004028080C0C0C0EC
:1009E000C0E0C0C004103810040E04100207023C1E
:1009F000FEFFFFEB9CBF9F9FDFE7F9FCFEFEFCF8CC
:100A0000F8F0E0C0801010800801081D397B77F7EE
:100A1000EFEFDFBF3F7F7FFFF1F0400101C0C00378
:100A200003200C0C40010121202004026060808022
:100A300080C0C0C0C004103810040E0410C0C00232
:100A400007028060FCFEFFE3BC7F3FBF9FC7F8FF4B
:100A5000FFFEFEFE7C3C78707010108008010103E0
:100A6000137B7777F7EFEFEFDFDFDF3F3F3C7C383B
:100A700030C0C00303200C0C4020010101202004E1
:100A800002606080C0808004103810040E0410C022
:100A9000C002070280F8FCFEC7B87FFF7F3F87F8DF
:100AA000FFFFFFFFFFFE1E1C1C1C0C108008010135
:100AB00003030707276EEEEFEFEFEFEFEFEFFF1FF8
:100AC0001E1E1E1E0CC0C00303200C0C4020202044
:100AD00004026060048080103810040E0410C0C04E
:100AE00002070280E0FCF00EFFFFFF7F3887FFFF68
:100AF000FFFFFFFFFF8787878010800801070F0F28
:100B00000F1E1D1EEEEFEFEFEFEFEFEFEF77270772
:100B10000707C3C003030C0C4020202020026060A4
:100B2000048080808080808080103810040E041043
:100B3000C0C0040207028080F0E01CFEFEFEFEF052
:100B40000FFFFFFFFFFFFFFFE3C3C1E0E0C0108026
:100B500001071F3F3E3D3F391CDEDFEFEFEFF77728
:100B6000777BBB130101010303080C0C402001201B
:100B700020200260600480C0C0C0C0E0C0103810F7
:100B8000040E0410C0C0040207028080C03078FC4C
:100B9000FCFCF2CE3FFFFFFFFFFFFFF1E0F0F0F8BB
:100BA00070301080010F3F7E797F7F7779383FDF8B
:100BB000EFEFF7777B391D1C0303080C0C40200175
:100BC000202020026060048080C0C0E0F060103807
:100BD00010040E0410C0C004028080F0F0F0F0E4B5
:100BE000DEBF7FFFFFFFFFFCF8F0F8FC7C3C1C80C1
:100BF000020701173E79F3F7FFFFF7F07F3FDFEFC2
:100C0000F7FB793C1E0F070303080C0C4020010181
:100C1000202020026060048080C0E0F870040E0490
:100C200010C0C00480801080C0E0E0D8DCBE7F7FB0
:100C3000FFFFFFFCFCF8FC7FBFDF8680020702019C
:100C4000083B73F7EFDFFFFFE0F3FF3F5FE7F37D64
:100C50003E1F07030303080C4020010303030101A7
:100C60002020200C0260600410B880F0F0608080CA
:100C7000840E0410C0C004808010808080B87E7F05
:100C8000FFFFFFFEFCFCFCFFFF3FC7E0E0020702A6
:100C900001C0C0276FEFDFDFBFDEFCC1FFFF3F0FEA
:100CA000737C7F1F07010303084020010103030336
:100CB000030301012020200C0C606004103810E0B8
:100CC000E0E0C4CEC48010C0C0040280801060FE8A
:100CD000FFFFFFFFFCFCFCFEFFFF3FC1F8F86002D6
:100CE000070201C0C00C1EBFBEBEBEBEFDB1C7FF25
:100CF000FFFF07383F1F07030308402001010303DC
:100D000007072707030120200C0C6060041038102F
:100D1000C0C0C0040EC4E0E0C010C0C004028080A7
:100D200010FCFFFFFFFCFCFCFCFFFFFFFFFCFCF8DE
:100D3000020702C0C0387D7D7D7D7D7D79B3C7FF10
:100D4000FFFF1F1F0F0303080140200123030707B4
:100D5000070707070320200C0C6060041038108080
:100D6000840E04C0E0E0E010C0C0040280801010D7
:100D700073FFFFFEF8F8FCFDFFFFFFFFE01EFEFC27
:100D8000E0020702C0C073FBFBFBFBFB797B33C7B0
:100D9000FFFFFC030F0702030308012020020606E1
:100DA00007070707270701200C0C40606004103874
:100DB00010040E04C0E0E0E08010C0C00402808097
:100DC00010100EFEFEF8F0F8F8FFFFFFFFFEF1CF67
:100DD0003FFEF8E080020702C0C00107CFEFF7F73F
:100DE000FBFBFB7377E7FFFFFCA303010801202057
:100DF000010101250606060707030303200C0C402A
:100E0000606004103810040E04C0C0D0808080C020
:100E1000C004028010108018F8F8F0E0E0F3FFFF43
:100E2000FFFFFCFBE7CFBE7CF8E04002070280C07A
:100E3000C00103071F1FDFEFF7F3FBFBFB73C7FFC7
:100E4000FEFCF1080120202001030303050406072E
:100E500007030301200C0C4004103810040E04900A
:100E6000808080808080400402606080101080401C
:100E7000E0E0C080C3E7FFFFFFFEFDFBF7EFDF9E72
:100E80003C787002070280C0C003070F1F3F3F9FDE
:100E9000CFE7F3FBFBFB7BA7FFFFFE7008012020E1
:100EA000200103030303010607030301200C0C4088
:100EB00004103810040E04108080800402606080EA
:100EC0001010808080020F8FFFFEFEFCFDFBF7F705
:100ED000EFEEDE9CB81002070280C0C00103070FCE
:100EE0001F1F3F7F7F3F9FE7FBF9F9FD39D7FFFFCA
:100EF0007F3C080120200303070303030301210CA7
:100F00000C4020103810040E0410C0C080808004F3
:100F1000026060041010800C1C3E3CFCFCFBFBFBE0
:100F2000F7F7F7EFEEEEDEC8C0800207028080C060
:100F3000C003010E0E1E3C3E7F7F7FFFFF1FE3F9C3
:100F4000FDFCFE3DC7FF7F3F060120200303230376
:100F50000101010C0C4020103810040E0410C0C018
:100F600004026060041010803078787878F8FFF719
:100F7000F7F7F7F7F7F77776E4E0E0C0C08002070D
:100F8000028080C0C0030330383838787FFFFFFF0D
:100F9000FFFF1FE1FCFEFFFE1DE37F3F1F0120203E
:100FA00020010103010C0C4020103810040E041025
:100FB000C0C004026060041080C0E0E0E0E4EEF72E
:100FC000F7F7F7F7F7F7F77778B878F0F2F7E28006
:100FD0008010C0C0030301E1E1E1FFFFFFFFFFFF5D
:100FE000FFE11CFEFFFFFF700F3F070120202001E3
:100FF000010C0C4020103810040E0410C0C00480F6
:10100000026060041080808080C8DCDEEEEEEFF7C6
:10101000F7F7FB7B389CFDBE7CFCF8E0808010C0BD
:10102000C0030303070783C3C7FFFFFFFFFFFFFFE3
:10103000F00F7F7F7F7F38070F0120202001010103
:1010400001010101010C0C4020103810040E0410A5
:10105000C0C0048002606004108038B89CDEEEEFEF
:10106000F7F7FBFC1C9EEEFEFE9E7EFCF0808010DF
:10107000C003030C0E1F0F0F078FFFFFFFFFFFFFC3
:10108000FC734F3F3F3F1E0C0301C020202003078D
:1010900003030303010C0C4020103810040E04104D
:1010A000C0C0048080026060041080E0F0783C9E44
:1010B000DFEFF7FBFCFE0FEFFFFFEFCF9E7CE8803A
:1010C0008010030308383C3E3F1F0F1F3FFFFFFF08
:1010D000FFFEFD7B270F0F0F0F01C0C02020200651
:1010E0000F070303010D0C402010040E0410C0C0B4
:1010F000048080C0C2C08060600410381080C0E2EC
:10110000FB7CBECFE7FAFCFFCF07FFFFFBF7EFCE7C
:10111000DC1080801003030861FBFDFE3F1F3F3F92
:10112000FFFFFFFEFE7D3B1B07070301C0C0202021
:10113000200E0F070301014020040E0410C0C0045C
:101140008082C0C0C0C0C080806060041038108041
:1011500002070280E0F8FE3ECEF0FCFFFF833F7BFB
:10116000FDFBFBF7F6E4808010100303080707E39C
:10117000FCFFFF3F3F3F7FFFFFFFFE7E1D010101A0
:10118000C0C020202001090D060F0F0101402004DE
:101190000E0410C0C0040280C0E0E0E0E0C0C080E7
:1011A0008060600410381080020702E0F8FC1CE048
:1011B000FFFFFFE38DBF7D7D7D7DFD78308080105A
:1011C00010030308061F1F83FCFFFF7F3F3F3FFF05
:1011D000FFFFFF7F06C0C020200C0C0103030307A4
:1011E0000707402020640029001E001F0020002166
:1011F000002200230024002500260027002D002EB9
:10120000002A004A00C35C2B0014001A00080015D5
:101210000017001C0018000C00120013002F0030F3
:101220000031004C003500390004001600070009A9
:10123000000A000B000D000E000F00330034000008
:101240000028004B00A900E1001D001B000600194A
:1012500000050011001000360037003800E50000DE
:101260000052004E00AA00E000E300E2000000008F
:10127000002C00000000000151E600E400500000D6
:101280000051004F00010001003A003B003C003DCE
:10129000003E003F00400041004200430044004542
:1012A0000001004D000100010001000100010001EA
:1012B0000001000100010001000100010001000126
:1012C00000010049000100010001000100010001CE
:1012D0000001000100010001000100010001000007
:1012E00000010046000100010001000100010001B1
:1012F0000001000100010001000100010002510095
:101300000001000100A60001000100010000000032
:1013100000010000000000010001000100010000C8
:1013200000010001000100010001000100010001B5
:1013300000010001000100010001000100010001A5
:101340000001000100010001000100010001000195
:101350000001000100010001000100010001000185
:101360000001000100010001000100010001000175
:101370000001000100010001000100010001000066
:101380000001000100010001000100010001000155
:101390000001000100010001000100010001000046
:1013A00000035101000100010001000100000000E4
:1013B0000001000000000001000100010001000028
:1013C0000001000100010001000100010001000115
:1013D0000001000100010001000100010001000105
:1013E00000010001000100010001000100010001F5
:1013F00000010001000100010001000100010001E5
:1014000000010001000100010001000100010001D4
:1014100000010001000100010001000100010000C5
:1014200000010001000100010001000100010001B4
:1014300000010001000100010001000100010000A5
:101440000001000100010001000100010000000096
:101450000001000000000001000100010001000087
:10146000000100010000DA0281FFD9F1DB20A4A60F
:101470002EAF00A0C000A1C800AED580A81FD30029
:10148000408D1420001E0F057F3F1F64321464320C
:1014900014783C1E1E140A0500010101010101011E
:1014A0000101020202020202020202030303030319
:1014B00003030304040404040404050505050506E8
:1014C00006060606070707070708080808090909A6
:1014D000090A0A0A0B0B0B0C0C0C0D0D0D0E0E0E4F
:1014E0000F0F0F10101111111212131314141515E0
:1014F00016161717181819191A1A1B1B1C1D1D1E52
:101500001E1F2020212222232424252626272829A5
:10151000292A2B2C2D2D2E2F3031323233343536D3
:101520003738393A3B3C3D3E3F40414243444546D3
:101530004748494A4C4D4E4F5051535455565859AF
:101540005A5B5D5E5F616264656668696B6C6D6F56
:101550007072737577787A7B7D7E808283858788C9
:101560008A8C8E8F91939596989A9C9EA0A2A3A503
:10157000A7A9ABADAFB1B3B5B7BABCBEC0C2C4C604
:10158000C9CBCDCFD1D4D6D8DBDDDFE2E4E7E9EBC0
:10159000EEF0F3F5F8FAFDFF2223252628292A2C60
:1015A0002D2F3032333536383A3B3D3E40424345AD
:1015B00047494A4C4E5051535557595A5C5E6062E8
:1015C000646668696B6D6F71737577797B7D7F81F8
:1015D000838587898A8C8E90929496989A9C9E9FF8
:1015E000A1A3A5A7A8AAACAEAFB1B3B4B6B8B9BB16
:1015F000BCBEBFC1C2C3C5C6C7C9CACBCCCDCED085
:10160000D1D2D2D3D4D5D6D7D7D8D9D9DADADBDB71
:10161000DBDCDCDCDCDCDDDDDDDDDCDCDCDCDCDB08
:10162000DBDBDADAD9D9D8D7D7D6D5D4D3D2D2D151
:10163000D0CECDCCCBCAC9C7C6C5C3C2C1BFBEBC44
:10164000BBB9B8B6B4B3B1AFAEACAAA8A7A5A3A1B5
:101650009F9E9C9A98969492908E8C8A8987858377
:10166000817F7D7B79777573716F6D6B6968666457
:1016700062605E5C5A5957555351504E4C4A494727
:10168000454342403E3D3B3A3836353332302F2DCC
:101690002C2A29282625232200AF00AE0501098027
:1016A000A101850319012AB700150126B70095018C
:1016B00075108100C0050C0901A101850419012ADA
:1016C000A002150126A002950175108100C0050138
:1016D0000906A1018506050719E029E7150025017E
:1016E0009508750181020507190029EF15002501EC
:1016F00095F0750181020508190129059505750107
:101700009102950175039101C005010906A101052A
:101710000719E029E7150025019508750181029553
:1017200001750881010507190029FF150026FF0032
:1017300095067508810005081901290595057501AB
:101740009102950175039101C009023B000201005D
:10175000A0FA0904000001030101000921110100A0
:10176000012240000705810308000109040100016E
:1017700003000000092111010001226D000705820C
:10178000032000011201000200000008616E606089
:101790000100010200010E034E0049004200420018
:1017A0004C004500000012036E0075006C006C00D8
:1017B000620069007400730000000403090411242E
:1017C0001FBECFEFDAE0DEBFCDBF04B603FE18C008
:1017D0008091820790918307A0918407B09185073B
:1017E0008730904BA740B04B59F41092820710926B
:1017F00083071092840710928507E0E0F8E30995CB
:1018000027E0A2E4B2E001C01D92A238B207E1F7DE
:1018100012E0A0E0B1E0E2E9FFE502C005900D9220
:10182000A234B107D9F70E9451260C94B12F0C9421
:101830000000E8EDF0E080818E7F80831092E2006E
:101840001092DA001092E100A0EEB0E08C9181607D
:101850008C9380818F77808319BCA7EDB0E08C9149
:101860008E7F8C9380818F7E808310920C060895EA
:101870002091E4003091E50095E6A9012091EC006B
:10188000822F817020FF06C08091E80080FF06C093
:1018900080E008952091E80022FD1AC08091310671
:1018A000882389F0853089F08091EB0085FD0FC099
:1018B0002091E4003091E50042175307F9F291506E
:1018C000E1F684E0089582E0089583E0089581E0E0
:1018D0000895EF92FF920F931F93CF937C018B019A
:1018E0000E94380CC82F811117C08091E80085FD37
:1018F0000BC08091E8008E778093E8000E94380C3E
:10190000882399F3C82F08C0F70181917F01809344
:10191000F1000150110949F78C2FCF911F910F91C0
:10192000FF90EF9008958091330687FF13C0809158
:10193000E80082FF06C08091E8008B778093E80082
:1019400004C0809131068111F2CF08958091310653
:101950008823D9F38091E80080FFF8CF8091E800D8
:101960008E77ECCF982F9093E900242F762F50E0BC
:10197000891731F07091EC002091ED005091F0004A
:1019800021FD07C09F5F973071F78093E90081E0E8
:1019900008953091EB003E7F3093EB003091ED00E5
:1019A0003D7F3093ED003091EB0031603093EB00E0
:1019B0007093EC002093ED005093F0002091EE0026
:1019C00027FDE0CF80E00895B0E0A0E0EAEEFCE083
:1019D0000C94512EC8EDD0E088818F7E8883E7ED8E
:1019E000F0E080818160808384E082BF81E0809329
:1019F0000C0688818E7F888302EE10E0F801108249
:101A00001092DA0081EEC82ED12CF6011082888166
:101A10008F77888388818068888388818F7D888399
:101A200019BC1092310610923206109230061092B4
:101A30002F0690EEE92EF12CF70180818B7F8083B9
:101A400088818160888342E060E080E00E94B20C7F
:101A5000F60180818E7F8083F801808181608083A0
:101A6000808188608083F70180818E7F8083888178
:101A700080618883CDB7DEB7E8E00C946D2EFC0161
:101A80008091390690913A0686179707A0F0611564
:101A9000710529F49091E8009E779093E80090E01A
:101AA0006115710551F4911108C08091E80082FF21
:101AB00034C080E00895BC01F2CF809131068823C4
:101AC000C1F18530C1F18091E80083FD30C0809183
:101AD000E80082FDEACF8091E80080FFE1CF8091AD
:101AE000F3002091F200382F6115710519F02830AC
:101AF000310558F091E02830310509F090E020914F
:101B0000E8002E772093E800CBCF81918093F100FD
:101B1000615071092F5F3F4FE7CF809131068823D5
:101B200041F0853041F08091E80083FFBECF81E035
:101B3000089582E0089583E0089508950895089532
:101B400080910E0608952FB7F89460910306709166
:101B5000040680910506909106062FBF08952091F6
:101B60001C012223C9F02091070627FF15C0E62F8C
:101B7000E695E695E695EE31D8F4E80FF92FF11DDC
:101B8000677021E030E001C0220F6A95EAF72095E6
:101B90008281282322830895FC01329608962191A0
:101BA000621303C0DF0111971C92E817F907B9F718
:101BB000089520911C012223C1F02091070627FFE0
:101BC00014C0E62FE695E695E695EE31F8F4E80FB9
:101BD000F92FF11D677021E030E001C0220F6A95F6
:101BE000EAF78281822B82830895FC0132962FEFDF
:101BF00030E04191641751F02F3F19F4411101C0B9
:101C0000232F3F5F3630A9F72F3F09F40895820F45
:101C1000911D27FD9A95FC0162830895209101068C
:101C2000309102062817390771F0909302068093CD
:101C30000106E091FF05F0910006309721F0008445
:101C4000F185E02D099508952091FD053091FE055F
:101C50002817390771F09093FE058093FD05E091F8
:101C6000FF05F0910006309721F00680F781E02D06
:101C700009950895E091FF05F0910006309729F04D
:101C80000190F081E02D0995089580E00895FB0111
:101C9000E950FC4F90819817B9F0808385E07695E4
:101CA00067958A95E1F721E030E002C0220F331FEB
:101CB0006A95E2F78091F5039091F603822B932BBE
:101CC0009093F6038093F5030895FA01811101C002
:101CD000FB01099508958091F003982F9E7F29F4C8
:101CE000817082608093F00308958E33E8F38170F1
:101CF0008C63F8CFAF92BF92DF92EF92FF920F9377
:101D00001F93CF93DF93082F162FE901E42FF0E004
:101D1000E856FB4E611110C0E4915E2F4E2F4983AF
:101D2000E8835A83DF91CF911F910F91FF90EF903D
:101D3000DF90BF90AF900895E62EF12C4491D42E01
:101D4000E42FF0E026E0829FC00111242FEF30E065
:101D5000B9010E94112E802F90E0880F991F55E540
:101D6000569FD001579FB00D11248A1B9B0B982FB3
:101D7000990F890F5901AE18BF08AE9ED001AF9ED2
:101D8000B00DBE9EB00D11245B2F189F8001112451
:101D9000012F11275901A01AB10AAE9E8001AF9EF2
:101DA000100DBE9E100D11245901A81AB108AE9C49
:101DB000C001AF9C900DBE9C900D1124892F9927D6
:101DC000281B390B2E9FC0012F9F900D3E9F900D19
:101DD0001124E92F62307105A1F050F461157105ED
:101DE00009F49DCF6130710581F0EB2F512F97CF12
:101DF0006430710569F080F06630710509F48FCFA9
:101E0000F4CFE42F4B2F592F8ACFE42F412F87CFC8
:101E1000EB2F542F492F83CF4B2F5D2DE12F7FCFF9
:101E200080E008959091070692FF06C0282F287140
:101E30002830F9F4877F846093FF06C0282F28712B
:101E40002831F1F4877E84612091080620FF06C0C6
:101E5000382F38713830D9F4877F816021FF06C070
:101E6000282F28712831D1F4877E816194FD877EE7
:101E70000895282F24712430F9F68B7F8860DCCFF9
:101E8000282F2471243101F78B7E8861DDCF382F14
:101E90003171313019F78E7F8860E0CF282F2171A2
:101EA000213121F78E7E8861E1CF7530B8F4603141
:101EB000A8F4E72FF0E095E0899FE00DF11D1124D3
:101EC00084E0EE0FFF1F8A95E1F7E60FF11DEE0F9C
:101ED000FF1FEB51FE4E85919491089580E090E0B4
:101EE0000895CF93DF93EC0182389105A9F1D8F5DD
:101EF0008133910509F496C048F58932910509F4BA
:101F00008AC08A9709F495C0C11522E5D20708F066
:101F1000B6C0C11531E5D30708F026C1C83ED105CA
:101F200008F09CC0C03ED10560F5C83AD10508F064
:101F300087C0C53AD10508F0EFC0C130D10509F11D
:101F40002097F9F0C430D105E0F440C08533910505
:101F500009F45AC0C997C1F680910706837089F0C9
:101F6000C0EED0E00EC0833E910599F170F4803E42
:101F7000910501F1823E910539F68091070682FDB7
:101F800021C0CE01DF91CF910895863E910561F188
:101F9000873E910571F1843E910509F0B5CF80919E
:101FA000080681FFEECF80910706C7EED0E084FDE2
:101FB0000DC0E7CF8091070680FD07C1909108060C
:101FC00090FFDFCFC3EED0E084FFDBCFD0E0C0E0F6
:101FD000D8CF8091070682FDFBC09091080690FD46
:101FE000BFCF84FFCECFF2CF8091070683FDDDCF38
:101FF000C8CF8091070683FDEEC09091080691FF3F
:10200000F0CFC4EED0E0BDCF8091070685FFB9CFF9
:10201000C9E2D0E0B6CF8091070685FFB2CFC5E315
:10202000D0E0AFCF8091070686FFABCFCAE2D0E009
:10203000A8CF8091070686FFA4CFC1E3D0E0A1CF4F
:10204000CF3BD10518F6C85AD0E0CC0FDD1FCC52DB
:10205000DE4F0990D881C02DD46493CFC11540E5DF
:10206000D40708F064C0C11580E4D80708F05CC04C
:10207000CE019A9581159F4108F483CFA7CFC11552
:1020800036E5D30718F5C11545E5D40708F084C037
:10209000C11584E5D80708F07AC09C2F96959695CF
:1020A0009E0123703327C115D34508F462C0C1E0F7
:1020B000D0E002C0CC0FDD1F2A95E2F730E2939FFB
:1020C000C0011124C82BD92BDA685BCFC1158AE572
:1020D000D80778F4C11599E5D90708F068C0C1158B
:1020E00028E5D20708F472CFDC2FCC27C06FD06A66
:1020F00048CFCE0190568115904208F067CF8D2FC2
:102100008F710E94120F90E0982F882788279F7167
:102110009C012C2BE90149C0C55AD0E0CF52DE4FBB
:10212000C881D0E0D0642DCFDF70D06A2ACFCE0135
:10213000E4E096958795EA95E1F783702C2F269534
:102140002695237040E2249F90011124382B8C2F78
:102150008370C1E0D0E002C0CC0FDD1F8A95E2F7AA
:10216000C22BD32BDC680DCFDC2FCC27C16FD06AFC
:1021700008CFC1E0D0E002C0CC0FDD1F2A95E2F706
:1021800020E2929FC0011124C82BD92BEBCFDC2F6A
:10219000CC27C46FD06AF5CE8C2F0E94120FC82FA7
:1021A000D0E0DC2FCC27CC27DF71D062EACE8C2F99
:1021B0008F700E94120F34E0D695C7953A95E1F7DB
:1021C000CF709C2FEC01D069DCCEC9E3D0E0D9CE32
:1021D000C2EED0E0D6CEC6EED0E0D3CE8091F302F0
:1021E00081111092F302089580959091F202982344
:1021F0009093F20208958091CF0290919E029813DD
:1022000001C008958F5F8770FACFB0E0A0E0EBE0E7
:10221000F1E10C94502E8C01C0905803D0905903DA
:10222000E0905A03F0905B038091F4029091F502E4
:10223000A091F602B091F702C82AD92AEA2AFB2A0D
:10224000CFE1D0E0BC2ED701C6010C2E04C0B6955C
:10225000A795979587950A94D2F780FD09C0219795
:1022600088F7B12C8B2DCDB7DEB7E9E00C946C2E3E
:10227000B8018C2F0E94550F0E94710F019779F3BE
:10228000F1CFCF93DF93EC010E940511BE010E94B4
:10229000550F0E94710FDF91CF910895953088F509
:1022A000803178F540E1949F90011124820F932FA3
:1022B000911D682F677023E0969587952A95E1F721
:1022C00025E0289FF001299FF00D1124EA59FD4FC8
:1022D00050E040E080E0219130E0062E02C03695CB
:1022E00027950A94E2F721703327042E01C0220FAC
:1022F0000A94EAF7822B4F5F5F4F4530510559F73B
:10230000089580E008959530A8F5803198F540E172
:10231000949F90011124820F932F911D282F2770D5
:1023200041E001C0440F2A95EAF723E0969587958E
:102330002A95E1F725E0289FF001299FF00D11244F
:10234000EA59FD4F30E020E070E05191DF01119734
:10235000CB01022E02C0969587950A94E2F7817010
:1023600081958527842385278C932F5F3F4F2530C8
:10237000310559F70895FC01808191810E94411136
:1023800092959F70963091F058F4925F9F709230C2
:1023900058F4803F19F030F4883E30F481E008951D
:1023A0009A5FF4CF843FD1F380E00895883EB0F384
:1023B000813FD1F7F3CF81FF03C0809888980895BB
:1023C000809AFCCFCF92DF92EF92FF926C01EE24C5
:1023D000FF2420E0C114D104E104F10419F0C70185
:1023E000B60120E1C72ED82EE92EFF24C114D10456
:1023F000E104F10419F0285FC701B6016B017C010B
:1024000054E0F694E794D794C7945A95D1F7C11441
:10241000D104E104F10419F02C5FC701B6016B018E
:102420007C0142E0F694E794D794C7944A95D1F79B
:10243000C114D104E104F10419F02E5FC701B60103
:102440009695879577956795672B682B692B09F08B
:102450002F5F822FFF90EF90DF90CF900895B0E034
:10246000A0E0E5E3F2E10C944D2E7C016B01D0E09D
:10247000C0E010E000E0AA24A394B12CFE0183E0A8
:10248000F695E7958A95E1F7EE0DFF1DE4918C2F07
:102490008770950102C0220F331F8A95E2F7E2236D
:1024A000B1F048013FEF831A930AF601E00FF11FE4
:1024B0008491BE010E94470E84012196C11582E0DD
:1024C000D807E1F6CDB7DEB7ECE00C94692EBE017B
:1024D00080E00E94470EF1CF8091640290E020914D
:1024E00061032F31F8F422E02093110101966EE18F
:1024F00070E00E94982E809364022DE130E0A901E3
:10250000481B590BCA01880F991FFC01EB56FE4F5F
:1025100060817181875A9E4FFC01808191810E9468
:102520002F12089521E02093110102966EE170E0D0
:102530000E94982E809364022DE130E0281B390B15
:102540002695822F90E0880F991FFC01E55CFE4FD5
:1025500060817181835E9E4FDFCFB0E0A0E0E3EB4E
:10256000F2E10C94512E6C017B0164E670E088E787
:102570000E94282DEC0197FD12C010E000E0F6014A
:10258000E00FF11F849164E670E00E94962DEC014B
:10259000892B29F40F5F1F4F0E151F0581F70E942D
:1025A0000D2ECE01CDB7DEB7E8E00C946D2E8091F4
:1025B000FB059091FC05911103C091E089270895D6
:1025C000882369F062E070E08AE996E10E94AD122A
:1025D000892B19F08091FB0508951092FB058091DD
:1025E000FB05EBCFCF93C091FB058091FC058823C1
:1025F000D1F00E94A30D605A75418F4F9F4F609399
:10260000F7057093F8058093F9059093FA05C111C9
:1026100008C062E070E088E996E10E94AD12892B63
:1026200029F0C091FB058C2FCF91089581E0809314
:10263000FB05F7CF8093090670930B0660930A069B
:1026400080913106843001F582E08093E9008FEFBC
:102650009091E800815095FD06C095ED9A95F1F7AF
:1026600000008111F5CF8091E80085FF0DC050E09A
:1026700040E063E070E089E096E00E94690C8091A0
:10268000E8008E778093E8000895BC0184E00E9402
:102690001A130895BC0183E00E941A130895CF9382
:1026A000DF93EC0180911C018823B1F18091070632
:1026B00087FF32C060E282E08093E9008FEF909163
:1026C000E800815095FD06C095ED9A95F1F7000060
:1026D0008111F5CF8091E80085FF1BC080911C011E
:1026E00070E050E040E0811104C050E040E068E05C
:1026F00070E0CE010E94690C8091E8008E77809393
:10270000E80080E2FE01AFE0B6E001900D928A950C
:10271000E1F7DF91CF91089568E081E0CDCF80911E
:10272000F00380FD0AC0E0EAF3E011821082128219
:10273000339653E0EE3BF507C1F76E9A3EB13F7B0F
:102740002EB120644FB7F89480EA93E0FC015191D8
:10275000CF0168E02EB9000000C057FF3EB9550F09
:10276000000000C000C000C03EB900C06A9591F7EB
:10277000F3E08E3B9F0751F74FBF8FE594E0019741
:10278000F1F700C000000895EF92FF920F931F939E
:10279000CF93DF938C01C0EAD3E0F12CE12CF80158
:1027A00094816091F2038091F103F5E0EF16F1045A
:1027B000ECF49923E9F09E014091F3030E947A0E14
:1027C0002FEFE21AF20A23968AE0E816F10439F7AD
:1027D0000E948F13F801848190E0019681709927FF
:1027E0008483CDB7DEB7E6E00C946F2E992319F3FE
:1027F0009E0140E0E3CF0F931F93CF93DF93C0EA96
:10280000D3E0FE01118210821282339683E0EE3B08
:10281000F807C1F710E000E080919F03082E000C3C
:10282000990B081719078CF180911B01082E000CD9
:10283000990B801791074CF19E014091F303609131
:10284000F2038091F1030E947A0E0F5F1F4F2396CF
:102850000A30110509F70E948F1380911A01909197
:102860009F03980F90939F0320911B01280F2093A3
:102870001B01121614F499301CF0819580931A01F3
:10288000DF91CF911F910F910895198218821A82BA
:10289000DCCFB0E0A0E0EFE4F4E10C94502EFC01BA
:1028A0008281DD24DA9480FD02C0DD24D39400EA25
:1028B00013E0D0E0C0E02AE0B22EF80111821082CD
:1028C000128294E0E92EF12CC12C80919E038C0D94
:1028D0008B30C4F16B2D0E948A2E892F082E000C9C
:1028E000990B8C179D0791F48091F3038E9DA001A5
:1028F0008F9D500D112455954795559547959801F5
:102900006091F2038091F1030E947A0ECD0CF1E008
:10291000EF1AF108D1F621960D5F1F4FCA30D1058D
:1029200061F60E948F1380919E0391E0D91210C02E
:1029300081110CC089E080939E03CDB7DEB7E9E03A
:102940000C946C2E87FFCACF865FC8CF8150F3CF1F
:1029500090E00196BE010E94982EEDCFEF92FF927B
:102960001F93CF93DF93EC0180EAE82E83E0F82EEB
:1029700010E08C8197014091F3036091F203810F85
:102980000E947A0E175E83E0E80EF11C1A3F89F769
:102990000E948F139A818C8190FF08C08F5F8C8377
:1029A000DF91CF911F91FF90EF9008958150F7CF65
:1029B0009091F00390FF0CC0E0EAF3E08183608324
:1029C0004283339693E0EE3BF907C1F70E948F13E1
:1029D0000895A3E0B0E0EFEEF4E10C94572E90914F
:1029E000F00390FF0AC09E012F5F3F4F0E947A0EB6
:1029F0004B8169818A810E94D8142396E2E00C946D
:102A0000732ECF93DF93EC01E0EFF3E0438162811B
:102A10008C810E94E9148C818F5F8C83DF91CF9130
:102A20000895CF93DF93EC01EC81F0E0E856FA4E85
:102A30004491E0EFF3E0628181810E94E9148C818E
:102A40008F5F8C83DF91CF910895B0E0A0E0EBE23F
:102A5000F5E10C94492EFC016280448081E084837E
:102A6000E8E9F5E17490E7E1F6E1E491CEEBD3E03B
:102A700030EAE32E33E0F32E40EFC42E43E0D42EB1
:102A800052E0A52EBB24B39488248A94912C55241B
:102A90005A94E7190E2F10E082E0861530F08091ED
:102AA000F10388838091F2038983411016C01B8251
:102AB0001A8297014A81698188810E947A0E25963F
:102AC00083E0E80EF11CCC16DD0631F70E948F136F
:102AD000CDB7DEB7E0E10C94652E8B818823E9F059
:102AE00081508B83859DC00111246C8170E00E9410
:102AF000112EFB01FF27E856FA4E8491E82FE719C3
:102B0000E59DC0011124B8010E94112E8091F303AC
:102B1000689FB00111247A83CCCF0E94FE2E2091B1
:102B2000F303269521582A9DA0012B9D500D1124B9
:102B3000452F5527841795070CF0BBCF82E08615EB
:102B400088F40E94FE2EB4010E94982E88830E9471
:102B5000FE2E2091F2032695622F70E00E94982E9F
:102B6000280F29831A828091F303893C20F088EC96
:102B70008C838B839ECF8431D8F784E1F9CFCF92B9
:102B8000DF92EF92FF926B017C010E946B0EB70106
:102B9000A60188E090E00E944E2FFF90EF90DF901A
:102BA000CF900895A3E0B0E0E8EDF5E10C94532E4A
:102BB000082FF62E142FE22E8091F00380FF28C0FC
:102BC000E82FE695F0E0ED5DFD4F908190939C033A
:102BD0008E7F823009F59E012F5F3F4F802F0E942C
:102BE0007A0E4B8169818A810E94D8140093F10387
:102BF000F092F2031093F303EE2051F06091F00392
:102C00007091F1038091F2039091F3030E94BF153C
:102C10002396E6E00C946F2E923019F41091F30392
:102C2000E5CF963019F40091F103E0CF9930F1F639
:102C3000FACFE0EFF3E0438125E0421B08F440E0E7
:102C400021E0628181810E94D2150895E0EFF3E0D6
:102C5000438125E0420F08F44FEF21E0628181813A
:102C60000E94D2150895E0EFF3E0628125E0621B37
:102C700008F460E021E0438181810E94D21508952B
:102C8000E0EFF3E0628125E0620F08F46FEF21E0EE
:102C9000438181810E94D2150895E0EFF3E08181A4
:102CA00021E04381628181500E94D2150895E0EFB6
:102CB000F3E0818121E0438162818F5F0E94D21520
:102CC00008958091F403882319F081508093F403D0
:102CD0006091F0037091F1038091F2039091F303FE
:102CE0000E94BF1508958091F403833018F48F5F1C
:102CF0008093F4036091F0037091F1038091F203EB
:102D00009091F3030E94BF150895E0EFF3E083E094
:102D1000808311828FEF828383831482608171812B
:102D2000828193810E94BF150895CF9384E090E043
:102D30000E94282FC82F82E290E00E94282F982F0F
:102D40008C2FCF91089568EE7EEF90E080E00E9496
:102D50005A2F60E082E090E00E943C2F60E083E028
:102D600090E00E943C2F1092F4021092F502109213
:102D7000F6021092F70260E084E090E00E943C2F9F
:102D800064E082E290E00E943C2F60E085E090E009
:102D90000E943C2F60E086E090E00E943C2F6FEFA5
:102DA00087E090E00E943C2F40E050E0BA0188E0CC
:102DB00090E00E944E2F60E08DE090E00E943C2F5A
:102DC00040E050E0BA0188E190E00E944E2F60E0C0
:102DD00087E190E00E943C2F40E050E0BA018CE196
:102DE00090E00E944E2F70E060E080E290E00E9450
:102DF0005A2F40E050E0BA0188E190E00E944E2F47
:102E000040E050E0BA018FE090E00E944E2F40E099
:102E100050E0BA0183E190E00E944E2F0895809126
:102E2000F2029091F102892B809344029091F30277
:102E30009923A1F0892B8093440280911C0188235F
:102E4000E1F18091070687FF38C08EE1E6E4F2E009
:102E500090E08150A0F591110E94EE1040E250E008
:102E600061ED72E084E492E00E941B2F892B21F136
:102E700080E2E4E4F2E0A1EDB2E001900D928A95E7
:102E8000E1F7E091FF05F09100063097A9F08091FD
:102E90001C01882359F08091070687FF07C08091A5
:102EA00044028093450286E0809344020280F381CD
:102EB000E02D84E492E00995089586E0C7CF219142
:102EC000222339F29F5FC5CF90E080E00E94240E5C
:102ED00090E080E00E940E0E1092F1020E940F1707
:102EE0000895609358037093590380935A03909305
:102EF0005B030E94641708950F931F9341E050E015
:102F000060E070E004C0440F551F661F771F8A956C
:102F1000D2F7CB01BA01609570958095909500919C
:102F200058031091590320915A0330915B03602399
:102F30007123822393230E9471171F910F9108958B
:102F40009091D002809589238093D002282F2770FA
:102F500091F4282F082E000C330B9217130659F00A
:102F60009091080692FF07C08595859585950E94EA
:102F70007C171092D0020895CF93C0910806C2FB2F
:102F8000992790F9981791F080FBC2F9C093080631
:102F90006091070684E090E00E943C2F6C2F82E253
:102FA00090E00E943C2F82E00E94A017CF910895EC
:102FB0000F931F9341E050E060E070E004C0440FC5
:102FC000551F661F771F8A95D2F7809158039091FD
:102FD0005903A0915A03B0915B038A019B01082B0E
:102FE000192B2A2B3B2BC901B8010E9471171F9185
:102FF0000F9108956093F4027093F5028093F602A6
:103000009093F7020E94641708951092F202809143
:103010001C01E6E4F2E0882361F08091070687FF57
:1030200008C08EE1DF011D928A95E9F70E946417BE
:10303000089586E0F7CFAAE2B0E0E1E2F8E10C946F
:10304000562E83E396E02091F100FC012193CF01FD
:10305000F6E08B339F07B9F780913406833009F48B
:1030600070C0B8F4813009F447C0823009F4B1C0AF
:103070008091E80083FF7EC28091330690913406F0
:103080009A3008F077C2E92FF0E0ED54F04D0C943F
:10309000AC2E8A3009F48CC08B3009F46FC08930B3
:1030A00039F780913306813219F780913706909174
:1030B00038060297E8F68091E800877F8093E80061
:1030C0008091E80082FF38C09091F3008091F20077
:1030D000029731F48091F100813011F0863021F4B3
:1030E0008091F10080930E068091E8008B778093A9
:1030F000E8000E94930CBCCF80913306813A09F01E
:10310000B7CF8091E800877F8093E80080913706F1
:1031100090913806892B61F460E28FE096E070E0D0
:103120000E943F0D8091E8008B778093E800A0CF4C
:1031300060E090E080E0F3CF809131068111C0CF54
:1031400097CF80913306813A09F092CF809137066C
:1031500090913806892B09F08BCF8091E800877F0A
:103160008093E8008091E80080FFFCCF80911C01F3
:103170008093F1008091E8008E77B9CF809133067B
:10318000813209F075CF8091370690913806892BEE
:1031900009F06ECF8091E800877F8093E8000E945D
:1031A000930C8091350680931C010E94051860CF16
:1031B00080913306813209F05BCF8091E800877FF0
:1031C0008093E8000E94930C8091360680930D0650
:1031D0004FCF80913306813A09F04ACF8091E800C1
:1031E000877F8093E8008091E80080FFFCCF80918A
:1031F0000D06BECF803899F0823809F0BBC18091AE
:1032000037068F70873008F0B5C18093E900809150
:10321000EB0085FB882780F91092E90006C08091B9
:103220002F0690913006911182609091E800977F6F
:103230009093E8008093F1001092F1008091E800F3
:103240008E7794C1882309F482C1823009F092C13B
:1032500080913506811185C1809137068F702FEFDF
:10326000280F263008F086C18093E9002091EB00FA
:1032700020FF77C1933031F48091EB00806280931E
:10328000EB006FC19091EB0090619093EB0021E017
:1032900030E001C0220F8A95EAF72093EA001092ED
:1032A000EA008091EB008860EACF811163C1109140
:1032B00035061F778091E3008078812B8093E300AF
:1032C0008091E800877F8093E8000E94930C8091B2
:1032D000E80080FFFCCF8091E30080688093E300EA
:1032E00082E0111183E08093310644C1805882301E
:1032F00008F040C180913506909136068C3D23E060
:103300009207A1F583E08A838AE289834FB7F89414
:10331000DE01139620E03EE051E2E32FF0E050930F
:103320005700E49120FF03C0E295EF703F5FEF701C
:103330008E2F90E0EA30C0F0C7968D939D932F5F5B
:10334000243159F74FBF8091E800877F8093E800D0
:103350006AE270E0CE0101960E943F0D8091E80084
:103360008B778093E80006C1C096E7CF409137067F
:1033700050913806292F33272330310509F444C0F2
:1033800078F52130310509F46FC08BE390E0E9E472
:10339000F7E12230310509F0EDC02091E800277FE8
:1033A0002093E8002091390630913A06821793075E
:1033B00008F49C0140E02115310509F064C0411179
:1033C00062C08091E80082FDC9CF809131068823D8
:1033D00029F2853019F28091E80083FFF2CFBECF49
:1033E00021323105A9F12232310509F0C3C041155E
:1033F000510509F443C04130510509F0BBC08DE6C9
:1034000090E0ECE9F6E1C9CF992781309105C1F050
:10341000009759F0029709F0ADC0E6E9F7E1E491B1
:103420008E2F90E0E6E9F7E107C0EAEBF7E1E491DF
:103430008E2F90E0EAEBF7E1009709F49BC0ADCF47
:10344000E6EAF7E1E4918E2F90E0E6EAF7E1F4CFC7
:103450004115510571F04130510509F08BC089E0EB
:1034600090E0E4E7F7E199CF82E190E0E4E8F7E16A
:1034700094CF89E090E0EBE5F7E18FCF80E490E036
:10348000E9E0F7E18ACF80913106882309F466CF1D
:10349000853009F463CF8091E80083FD5FCF809190
:1034A000E80082FD8ECF8091E80080FF84CF90916C
:1034B000F3008091F2002115310519F08830910553
:1034C00050F041E0089709F040E08091E8008E77E5
:1034D0008093E80070CF44914093F10031962150E1
:1034E00031090196E8CF803809F044C08091E800A6
:1034F000877F8093E800809132068093F1009ECE12
:10350000811138C0109135061230A0F58091E80085
:10351000877F8093E800109332060E94930C11235A
:1035200011F084E005C08091E30087FDFACF81E0CF
:103530008093310642E061EC81E00E94B20C42E2ED
:1035400061EC82E00E94B20C8091310613C0809140
:103550003506813079F481E0933009F080E0809382
:1035600030061092E9008091E800877F8093E800A0
:103570000E94930C8091E80083FF0AC08091E800CC
:10358000877F8093E8008091EB0080628093EB005E
:10359000AA96E3E00C94722E0E9405182FEF84E3A4
:1035A0009CE0215080409040E1F700C0000088E19D
:1035B0009CE00FB6F894A895809360000FBE90939E
:1035C0006000FFCF882321F00E94F4100E940F17A3
:1035D0000895882339F09091F202982B9093F2028B
:1035E0000E940F170895882351F19CEF980F913A8C
:1035F00040F4682F84E492E00E94AF0D0E940F1700
:10360000089590E2980F983050F4877091E001C0CF
:10361000990F8A95EAF7892F0E94F410EFCF9BE566
:10362000980F933028F490E080E00E94240E0895D3
:10363000885A873120F490E080E00E940E0E0895B1
:10364000CF93C82F8823D9F18CEF8C0F813AC8F51E
:1036500080911C01882311F18091070687FF1EC00D
:10366000EC2FE695E695E695F0E0EC5BFD4F828168
:1036700090E04C2F477021E030E002C0220F331F52
:103680004A95E2F782239323892B91F06C2F84E4EF
:1036900092E00E94AF0D0E940F170AC0E6E4F2E02C
:1036A0008CE492E02191C21789F38E179F07D1F71E
:1036B0006C2F84E492E00E94D90D0E940F17CF91E5
:1036C000089580E28C0F883068F4C77021E030E004
:1036D00001C0220FCA95EAF78091F202822B8093F3
:1036E000F202EBCFEBE5EC0FE33040F4F0E0EF5209
:1036F000FE4F808190E00E94240EE1CFC85AC7316E
:10370000F0F6EC2FF0E0EE0FFF1FEC52FE4F808141
:1037100091810E940E0ED3CF1F920F920FB60F927F
:1037200011242F933F934F935F936F937F938F93C6
:103730009F93AF93BF93CF93DF93EF93FF93D0917A
:10374000E900DF708091EC00C82FC17080FDC0E8F7
:103750001092E9008091F000877F8093F0007894C8
:103760000E941B181092E9008091F00088608093FD
:10377000F000CD2BCF70C093E900FF91EF91DF9166
:10378000CF91BF91AF919F918F917F916F915F91F9
:103790004F913F912F910F900FBE0F901F90189552
:1037A00078941F921FB61F9211248F939F93AF930B
:1037B000BF938091030690910406A0910506B091F5
:1037C00006060196A11DB11D809303069093040681
:1037D000A0930506B0930606BF91AF919F918F917C
:1037E0001F901FBE1F9018959C014FB7F8948091B1
:1037F000030690910406A0910506B09106064FBFFE
:10380000821B930B08952FB7F89480910306909133
:103810000406A0910506B09106062FBF08950F93E8
:103820001F93CF93DF93C62FD42F022FFC018281E9
:103830008823A9F060933D060E94031C90933C06E8
:1038400080933B06C77081E001C0880FCA95EAF7F4
:103850000E94E91ADF91CF911F910F9108958091F5
:103860003D06681335C080913B0690913C060E944E
:10387000F41B883C910560F510E21D0FCD17B9F0DF
:1038800080E28C0F883040F4C77081E001C0880F5F
:10389000CA95EAF70E94E21A183048F481E09D2F99
:1038A000977001C0880F9A95EAF70E94E91A802F55
:1038B0000E94201B802F0E94F31A183058F6D770F0
:1038C00081E001C0880FDA95EAF70E94E21AC2CFC0
:1038D000C77081E001C0880FCA95EAF7F6CF609102
:1038E000F003669570E041E050E089E191E00E94CC
:1038F0000E2F892B19F481E080939D030E94031CF5
:10390000909397038093960308959091F00390FF0E
:103910002CC0917081112AC092609093F0036623AD
:1039200051F06091F0037091F1038091F203909156
:10393000F3030E94BF156091F003669570E041E0CB
:1039400050E089E191E00E940E2F892BB1F0109296
:103950009D0381E08093990320E04091F3036091FF
:10396000F2038091F1030E94D21508958F3110F077
:103970009C63D3CF880F982BD0CF0E946F1CE9CFC8
:103980001092950380919403882349F08091F0036D
:1039900081608093F00360E086950E94851C0E9400
:1039A0006F1C08951F920F920FB60F9211242F9340
:1039B0003F934F935F936F937F938F939F93AF93B7
:1039C000BF93EF93FF938091E10082FF09C0809144
:1039D000E20082FF05C08091E1008B7F8093E100CF
:1039E0008091DA0080FF24C08091D80080FF20C041
:1039F0008091DA008E7F8093DA008091D90080FF79
:103A0000A5C080E189BD82E189BD09B400FEFDCF7A
:103A100081E08093310680910C06811109C00E94DB
:103A2000190C0E94E40C8091E20084608093E20013
:103A30008091E10080FF17C08091E20080FF13C0F9
:103A40008091E2008E7F8093E2008091E2008061AD
:103A50008093E2008091D80080628093D80019BCE6
:103A600085E0809331068091E10084FF33C080912E
:103A7000E20084FF2FC080E189BD82E189BD89B564
:103A8000982F917080FFFBCF8091D8008F7D80931D
:103A9000D8008091E1008F7E8093E1008091E20068
:103AA0008F7E8093E2008091E20081608093E2004B
:103AB00080913206882309F44FC084E08093310658
:103AC0000E9405180E943A0E0E94DB110E94C01C41
:103AD000809131068091E10083FF27C08091E20050
:103AE00083FF23C08091E100877F8093E10082E023
:103AF00080933106109232068091E1008E7F809390
:103B0000E1008091E2008E7F8093E2008091E200EC
:103B100080618093E20042E060E080E00E94B20CAD
:103B20008091F00088608093F000FF91EF91BF9149
:103B3000AF919F918F917F916F915F914F913F9145
:103B40002F910F900FBE0F901F90189519BC1092D7
:103B5000310610920C066CCF8091E30087FD93E054
:103B600090933106ADCF8091F0038695815009F492
:103B70008EE161E00E94851C08958091F003869596
:103B80008F5F8F3108F081E061E00E94851C08950D
:103B90009091F00390FF08C09695981728F096171B
:103BA00018F40E94BD1D089561E00E94851C0895CF
:103BB0000E94031C9093920380939103809193033E
:103BC000882321F0109293030E94C01C0895A5E061
:103BD000B0E0EDEEFDE10C94492E7C01FC01838107
:103BE0009481892B31F08081918189238F3F09F065
:103BF0002FC52596E0E10C94652E0E940511182F23
:103C0000682F89819A810E94831169817A81812F2D
:103C10000E94550F8C01F7018281882369F1C80148
:103C200090568115F0E29F0750F0905E811520E1DB
:103C3000920728F0915C81159F4108F049C0C801A6
:103C400099279C01245031092432310518F08B97B3
:103C50000E9780F4E0912103F0E0EE0FFF1FEA5D84
:103C6000FC4F808191818F3F2FE7920719F00196D9
:103C7000918380830E94D81D043F3CE5130709F41B
:103C800092C078F5093D9CE5190709F488C00A3D02
:103C9000ECE51E0709F493C0083DFCE51F0779F524
:103CA00026E241EE61EEC7010E940F1C8091D00216
:103CB000877009F49ECFF7018281882309F499CF98
:103CC0008091080682FF95CF82E00E94A01791CFD5
:103CD00090E080E00F3F110511F008F0B2CFC8016D
:103CE000B0CF063F2CE5120709F465C008F45FC0A9
:103CF00027E245EE66EE073F8CE51807A1F2F701D3
:103D00008281882309F4B5C410923D060430FDE594
:103D10001F0708F057C00B3F2CE5120730F4C8010D
:103D200082509C45449708F057C00E949516909386
:103D300008068093070601319CE5190709F427C19D
:103D400008F0A3C00930FCE51F0709F40AC108F018
:103D50006EC005303CE5130709F4FBC008F053C002
:103D600003309CE5190709F4EAC008F0EEC0809121
:103D7000070681600230FCE51F0709F4E3C060918B
:103D800007061091080684E090E00E943C2F612F06
:103D900082E290E00E943C2F0E94051887CF27E224
:103DA00045EE65EE80CF26E241EE60EE7CCF27E265
:103DB00045EE64EE78CF26E241EE62EE74CF28E263
:103DC00041E0EFCF02363DE5130709F4AECF063AE6
:103DD0008DE5180709F4A9CF06312CE5120709F083
:103DE000E4C48091F2028A7A91E009F490E0909321
:103DF000650269E2811165E384E492E00E94D90DD5
:103E00000E940F1753CF80910706806207302CE580
:103E1000120709F497C080910706806108303CE5DD
:103E2000130708F48FC08091070680648BC00D30A3
:103E30008CE5180709F49FC0A0F4809107068E7FD7
:103E40000B30ECE51E0709F47DC0809107068C60FD
:103E50000C30FCE51F0708F475C0809107068D7FC4
:103E600071C0809107068F7E0F302CE5120709F490
:103E700069C080910706877F00313CE5130708F48D
:103E800061C0809107068F7D5DC00E3F8CE51807ED
:103E900009F479C058F50531ECE51E0709F481C035
:103EA00098F480910706837F03312CE5120709F40B
:103EB00049C008F470C00E94051890910706892F28
:103EC00097FB87F980583EC00C3F8CE5180709F432
:103ED00044C008F054C08091080681600B3FECE5B7
:103EE0001E0709F04CCF8093080649CF0230FDE54C
:103EF0001F0709F462C090F4809108068C7F0115B9
:103F00003DE5130781F398F180910806982F90956D
:103F100091708E7F892B90FB81F9E5CF02369DE56C
:103F2000190709F450C0063AEDE51E0709F452C01E
:103F30000330FDE51F0709F022CF60E03FC080910C
:103F400007068260809307061ACF80910706846077
:103F5000F9CF809107068860F5CF809108068260CE
:103F6000C2CF0E940518809107068068EBCF809130
:103F700008068360B8CF809107068B7FE3CF8091DE
:103F800008068E7FB0CF809108068D7FACCF8091E0
:103F900007068F7BD7CF0E940518809107068F7781
:103FA000D1CF8091070682FB992790F921E09227D3
:103FB00090FB82F990FB83F9C5CF61E08EE090E041
:103FC0000E943C2FDCCE90910706892F8F7E94FFB4
:103FD0008061B8CF90910706892F8E7F90FF816016
:103FE000B1CF8091650269E2811165E384E492E0DA
:103FF0000E94AF0D05CF81608093F00361E086954C
:104000000E94851C53CE43EB5DE16DEB7DE10E9488
:10401000650E4CCE4DEB5DE163EB7DE1F8CF47E5FE
:1040200056E16DE476E1F3CF43E356E160E476E1F7
:10403000EECF40E456E163E376E1E9CF49E156E1B2
:1040400066E276E1E4CF41E656E163E776E1DFCF71
:1040500043E756E161E676E1DACF61E081E0D0CF77
:1040600065E082E00E94C81D21CE6EE089E0FACFB3
:1040700064E18FE0F7CF0E940518EFEFF4E32CE046
:10408000E150F0402040E1F700C0000081E0809363
:10409000E00080E28093D8001092C9008FE19EE496
:1040A0000197F1F700C0000087E090EBDC018093FE
:1040B000820790938307A0938407B093850788E1D4
:1040C0009CE00FB6F894A895809360000FBE909383
:1040D0006000FFCF8091080682FB882780F991E07D
:1040E00089270E94BC17F7018281008111818823F2
:1040F00009F445C0C8010E940511D82E682FC801D7
:104100000E948311B8018D2D0E94550F0E94710FDE
:104110008C01882EF701D280958092943FE0932203
:104120008091D0028770C1F0BD2CDD20B1F0812FCD
:10413000807F803421F080E2800F883068F08091A9
:10414000080682FF09C082E00E94A0178091D00279
:104150008770BB24B3948111B12CA12EA2942FE0BF
:10416000A222FBE0FA1508F476C0EA2DF0E0E35451
:10417000F04D0C94AC2E81E0B4CF80E0B2CFC801FA
:104180000E944E11D82EBECF212F2F70C22E107F2D
:1041900019F0C29490EFC922DD20B9F0CC2069F06B
:1041A00080E2800F883010F0811009C08091F20207
:1041B000C82AC092F2020E940F17802F4AC0809135
:1041C000F102C82AC092F102F6CF802F0E94F31AA2
:1041D000CC2009F440C0005E083010F0811004C00B
:1041E0008C2D0E94F41006C0C0948091F102C82268
:1041F000C092F1020E940F172EC0312F3F70C32EC4
:10420000107F103219F0C29480EFC822882089F004
:1042100081E0881609F479C0DD2009F483C0992073
:1042200009F479C0F701858180FFC7CF8F7085833E
:1042300072C02091080622FD45C0DD20E9F1CC20A6
:1042400039F08091F202C82AC092F2020E940F1740
:1042500080E00E94201BEA2DE850FF0B349720F4E9
:104260000E943A0E0E94DB11BB20A9F08091D0027F
:1042700080FD11C0F70112828595859585950E9474
:10428000D817C7010E94E71D8091D00285958595BA
:1042900085950E947C1785E0F701DE01119601905B
:1042A0000D928A95E1F709811A81C8010E944E1189
:1042B000B8010E94550F9DCC80E00E94F31ACC20DB
:1042C00051F28ECFDD20A1F09091F3028C2D892B3D
:1042D000911003C00E94E91ABECFE1E09E12FACF0E
:1042E00022FFB9CF981709F4B6CF8093F302B3CF6A
:1042F000911006C00E94EE108C2D0E94E21AABCFE6
:10430000F1E09F1609F4A7CFF5CFDD2031F025E0CD
:10431000291508F4A0CF8C2DDDCF34E0391508F431
:104320009ACFEACF992041F3F9E38F128AC12FEF98
:1043300037EE83E0215030408040E1F700C00000BC
:1043400080C1812F86958695837061F0813009F058
:1043500082CFC8019370D11002C090E080E00E942B
:104360000E0E79CFC8019370D11002C090E080E0AA
:104370000E94240E70CF812F837009F066C0D11087
:104380006ACF802F829586958770880F880F602F5F
:104390006F70462E512C712C612C082E04C0440CD9
:1043A000551C661C771C0A94D2F740E050E0BA0115
:1043B00004FF0FC04FE050E060E070E004C0440F25
:1043C000551F661F771F8A95D2F7409550956095C7
:1043D0007095812F869586958370823019F1D8F477
:1043E0000091F4021091F5022091F6023091F7024B
:1043F000813069F04429552966297729CB01BA0112
:1044000060237123822393230E94FA1724CF402A2A
:10441000512A622A732ACB01BA0164297529862997
:104420009729F2CF44295529662977290091F4026A
:104430001091F5022091F6023091F702CB01BA01FA
:104440006027712782279327DFCF8695DD2011F023
:10445000812F8170882309F4FECE802F8295869566
:104460008770880F880F602F6F70462E512C712C2B
:10447000612C082E04C0440C551C661C771C0A9441
:10448000D2F740E050E0BA0104FF0FC04FE050E027
:1044900060E070E004C0440F551F661F771F8A95C7
:1044A000D2F74095509560957095812F86958695A9
:1044B0008370823019F1D8F4009158031091590398
:1044C00020915A0330915B03813069F044295529CA
:1044D00066297729CB01BA016023712382239323B4
:1044E0000E947117B8CE402A512A622A732ACB0142
:1044F000BA016429752986299729F2CF44295529BB
:1045000066297729009158031091590320915A0385
:1045100030915B03CB01BA01602771278227932773
:10452000DFCF1F70DD2029F0812F0E94D817802F48
:10453000D1CE802F0E94E21A812F0E947C178BCE51
:10454000802F92EF891609F43FC0981570F0E0EFC4
:104550008E16D1F0F1EF8F1691F0DD2009F46CC0CA
:1045600091102BCE812F8F7133C023EF821699F1DA
:1045700034EF8312F2CF8091080682FD3FC0812F75
:104580008F71DD20D1F224C0DD20C9F084E08915CF
:1045900008F461CE1F7161E070E080E090E004C03B
:1045A000660F771F881F991F1A95D2F7009158033D
:1045B0001091590320915A0330915B03ADCF95E0E0
:1045C000991508F448CEE6CF812F8F71D110B5CF61
:1045D0000E94D81740CE60E070E0CB01DD2009F4E6
:1045E0007FCF1F7161E070E080E090E004C0660F53
:1045F000771F881F991F1A95D2F772CFDD2089F097
:104600001F71812F0E94D8178091080682FF07C072
:10461000E8E01E9FC001112483608093D002812FA7
:10462000D7CF81E00E94A017F1E0F91508F013CE72
:1046300082E00E94A0170FCE992039F0893309F447
:1046400076CE802F0E94F31A06CE812F8F7175CF00
:1046500085E0DE01119601900D928A95E1F7F70150
:10466000228189819A812111C8CA0E944E11182F76
:10467000CCCA0631FCE51F0709F4B3CC8091F202E5
:1046800082720C3C2CE5120709F4DDCC08F055C011
:10469000073C9CE5190709F4C2CCC8F5043CFCE5CD
:1046A0001F0709F4B0CC20F5033C3CE5130709F0E3
:1046B0001ACD8091F00380FF9ECC8E7F8093F00313
:1046C0006091F0037091F1038091F2039091F303F4
:1046D0000E94BF1510929D033FEF80E792E031509A
:1046E00080409040E1F700C000000E948F13DECAB6
:1046F000053C9CE5190709F48DCC4DE456E167E5CE
:1047000076E1063CECE51E0709F481CCECCC093CD3
:10471000FCE51F0709F48DCC08F486CC0A3C3CE587
:10472000130709F48BCC46E256E169E176E10B3CD4
:104730009CE5190709F46BCCD6CC013DECE51E07CE
:1047400009F493CCA0F40E3C2CE5120709F485CCB7
:1047500008F47ECC0F3C8CE5180709F481CC68E0A6
:1047600086E0003D9CE5190709F47CCCBCCC073DF4
:10477000ECE51E0790F4043DFCE51F0708F096CA1F
:10478000023D2CE5120709F473CC67E185E1033D96
:104790003CE5130709F466CCA6CC0E358DE5180769
:1047A00009F0A1CC6EE189E15DCC0B359DE51907DF
:1047B00009F4E1CC68F40115FCE51F0709F45BCCB2
:1047C0000F3D1C4509F08FCC0E94A3160E94CC1A05
:1047D0000D353DE5130709F47DCC08F4CECC083A3D
:1047E0001D45A1F380CC1F93CF93DF9380919D0251
:1047F000807F09F049C080919A02882309F444C05F
:104800008091CF02D0919E0260919802709199029E
:10481000A0919B02B0919C02C62FC72316E0D81727
:1048200099F190E0109711F0CF3F19F4019687703D
:10483000F6CF189F9001199F300D1124F901E15610
:10484000FD4F41814713F2CF40814613EFCF4281A4
:104850004111ECCF438154814A1B5B0B483C51050D
:1048600028F780919D028F70806180939D02F901ED
:10487000EC55FD4F80818F708061808388E992E0E4
:104880000E94E71D0E94FB10DF91CF911F910895B8
:10489000A1E1B0E0EEE4F4E20C944F2E8C0185E04F
:1048A000F801DE011D9601900D928A95E1F7F8015D
:1048B000E28088E9A82E82E0B82E60919B02709178
:1048C0009C026115710509F426C1909198024091EE
:1048D0009902892F84238F3F09F41DC120813181E2
:1048E000C380D480F0909A02F601E61BF70BFF20FC
:1048F00009F4DCC080919D02582F507FE83CF105FF
:1049000008F09FC051116BC0FE2C431314C09213CA
:1049100012C0E11010C08F70806180939D02C501AC
:104920000E94E71D80919D02F80185838F2D61967D
:10493000EAE00C946B2EC114D10429F0822F83235A
:104940008F3F09F003C180E0F82FF170DF2E80FF68
:104950003CC08091CF0240919E0256E0841315C066
:104960002D873E878D859E850E944111292F229596
:104970002F702230F0F0243018F59F70F1F0F8011C
:104980009581907FD1F4D12C1EC090E0589FF0010A
:10499000599FF00D1124E156FD4F6181361306C079
:1049A0006081261303C06281E6120FC001968770F2
:1049B000D5CF9F7011F0882331F3805E883018F3D3
:1049C000C8010E94E71DFD2CB1CFEE2009F4AECF47
:1049D00080919D02816080939D02F12CA7CF4313AB
:1049E00006C0921304C0F801EE2009F479C0C80192
:1049F0000E94BB11882309F1EE20F9F080919D02FD
:104A0000803270F0209198023091990238872F837C
:104A10001986DB86CA868C87CE0107960E94E71D21
:104A200086E0F801A8E9B2E001900D928A95E1F7DD
:104A30000E94F323FF24F39479CFC8010E94E71D5D
:104A4000F9CF51110AC088E992E00E94E71D86E083
:104A5000F50111928A95E9F7C0CF43130FC0921365
:104A60000DC0E1100BC0F8018583C8010E94E71D4D
:104A700086E0F50111928A95E9F758CFC8010E94A6
:104A8000BB118823D1F2EE20C1F280919D028032C9
:104A900038F220919802309199023A8329831B823F
:104AA000DD82CC828E83CE010196B8CFE83CF10541
:104AB000F8F6FE2CEE2009F243131FC092131DC01E
:104AC00080919D0280FD10C0982F907F69F0F801C1
:104AD0008583903F31F0982F907F905F8F70892B66
:104AE0008583C8010E94E71D86E0F801A8E9B2E0CD
:104AF00001900D928A95E1F719CFC8010E94BB1170
:104B000081118ECF80919D02816080939D02C801AA
:104B10000E94E71D0BCFEE2009F48FCFC8010E9441
:104B2000BB11F82E882309F488CF86E0F801A8E9A4
:104B3000B2E001900D928A95E1F7809198029091F0
:104B400099020E9441110E94F323F0CE81E08E254C
:104B5000FBCEA7E1B0E0EFEAF5E20C94562E4B8BCA
:104B60005C8B6D8B7E8B8F8B61111092F1021A8A98
:104B7000198A85E0FE017396DE011D9601900D9263
:104B80008A95E1F786E0FE013D96DE0117960190D9
:104B90000D928A95E1F7CE0107960E94482488235A
:104BA00059F016E08091CF0290919E02891343C084
:104BB0006796E3E00C94722E86E0FE013796DE01E4
:104BC000119601900D928A95E1F78A859B85892B34
:104BD00041F38F81988589238F3F19F320919E029D
:104BE00030E0C9010196877099274091CF0248179C
:104BF000190671F40E94051810929E021092CF02BD
:104C000086E0E8E9F2E0DF011D928A95E9F7C9CF75
:104C100096E0929FD001939FB00D1124A156BD4FF5
:104C2000FE01319601900D929A95E1F780939E02D4
:104C30000E94FB10B6CF819FC001112481569D4F69
:104C40000E944824882309F4B3CF8091CF0290E0DA
:104C50000196877099278093CF02A4CF1F921FB629
:104C60001F9211248F939F93AF93BF93809103065C
:104C700090910406A0910506B09106064196A11DEB
:104C8000B11D8093030690930406A0930506B0938C
:104C90000606BF91AF919F918F911F901FBE1F90ED
:104CA0001895CDB7DEB72C970FB6F894DEBF0FBEC0
:104CB000CDBF85B7806885BF85B7806885BF84B75D
:104CC000877F84BF0FB6F894A895809160008861B3
:104CD00080936000109260000FBE80E890E00FB6F5
:104CE000F89480936100909361000FBE80E19FE093
:104CF00090934302809342020E94190C0E94E40C9C
:104D00008091E20084608093E20078948091310683
:104D10008823A1F01091E9001F709091EC00892F79
:104D2000817090FD80E8182B1092E9008091E800D6
:104D300083FD0E941B181F701093E90082E084BD60
:104D400093E095BD9AEF97BD80936E0026E032E028
:104D5000A2E0B2E061E070E08D91E82FE295EF70A3
:104D6000F0E091A18F70AB0101C0440F8A95EAF782
:104D7000892F842B81A32A173B0771F7A2E0B2E0A9
:104D800061E070E09D91E92FE295EF70F0E042A1C3
:104D90009F708B0102C0000F111F9A95E2F7C801A6
:104DA0008095842382A32A173B0761F74BE052E0EA
:104DB000A6E0B2E061E070E08D91E82FE295EF703F
:104DC000F0E011A18F709B0101C0220F8A95EAF7D4
:104DD000922F9095912391A382A1822B82A34A17AF
:104DE0005B0751F71092FD021092FC02109207032C
:104DF000109206031092FF021092FE021092090315
:104E000010920803109201031092000310920B03FA
:104E100010920A03109203031092020310920D03E2
:104E200010920C03109205031092040310920F03CA
:104E300010920E0390E080E00E94362F883E9E4F35
:104E400011F00E94A31682E090E00E94282F809328
:104E500010030E949516909308068093070683E03E
:104E600090E00E94282F682F70E090E080E00E9480
:104E7000FA1710928E0380E8809360030E94222D1F
:104E80006DE070E088E794E10E94AD12892BC9F5CE
:104E900080918E0363E070E081FD4BC185E794E172
:104EA0000E94AD12892B69F56DE070E085E694E112
:104EB0000E94AD12892B29F50E94A30D605A7541FD
:104EC0008F4F9F4F6093F7057093F8058093F90516
:104ED0009093FA05E7EFF3E080E092E0DF018C01C8
:104EE0001D9201501040E1F78FEF9FEF9093F60372
:104EF0008093F50381E08093FC058093FB0510927D
:104F00008F038091F802811136C090E080E00E940A
:104F1000362F883E9E4F21F00E94A3160E948516D0
:104F200088E090E00E94302F6093F0037093F103CB
:104F30008093F2039093F3036E7F71F40E948516C1
:104F400088E090E00E94302F6093F0037093F103AB
:104F50008093F2039093F3030E946B0E10929D03D3
:104F60008091F00380FF04C060E086950E94851C5C
:104F700081E08093F80281E080935E0325982D9A6A
:104F800024982C9A8FE891E00197F1F700C0000077
:104F900020915E034FE553E0FA018E2F841B8217A8
:104FA00008F4CAC084E091E0909300068093FF0566
:104FB00022242394312C50E040E0F12CA2E0B2E016
:104FC00030E020E08D91E82FE295EF70F0E08F70F7
:104FD000810102C0000F111F8A95E2F7C801B101DB
:104FE000022E02C0660F771F0A94E2F7642375232E
:104FF000022E02C0759567950A94E2F792A1662386
:1050000009F4A6C0892B82A32F5F3F4F24303105BE
:10501000C9F61AE11A95F1F700C081E090E0A0E02E
:10502000B0E0042E04C0880F991FAA1FBB1F0A946A
:10503000D2F78C019C0120953095ECEFF2E066E010
:10504000A62E62E0B62EE12C61917191D501DD9022
:105050005D018D2D82958F7090E0DC0190968C9192
:1050600090E0BD2DBF7002C095958795BA95E2F787
:10507000DF0112976D0180FD6EC0CB01802B912B5B
:105080008D939C93D6018D919C916817790711F0AF
:10509000EE24E39466E073E06E177F07A9F6FE281E
:1050A0004F5F5F4F4031510509F088CFFF2009F471
:1050B00056C071E07093FB020E94031C9093FA02A9
:1050C0008093F9028091F9029091FA020E94F41BF8
:1050D0000A9750F18091FC029091FD029093070392
:1050E000809306038091FE029091FF029093090342
:1050F00080930803809100039091010390930B0328
:1051000080930A03809102039091030390930D030F
:1051100080930C03809104039091050390930F03F7
:1051200080930E031092FB02FF20E9F00E94A30D72
:105130001AC082E794E1B4CE83B185FB882780F959
:105140001C9904C090E0892B819327CF92E0FBCF7C
:105150008095892358CFCB018223932391CF8091CF
:10516000FB028111AFCFA6E0B3E0E1E1F3E010E094
:1051700000E0602F8D919D91219131912817390781
:1051800009F43BC12827392770E0CC24C394D12CE3
:10519000A9014C215D21452B09F429C179836A833A
:1051A0009C012C213D2191E0232B09F490E09B836D
:1051B0000E94031C8160782F9D838C8349815A81D2
:1051C0006B818D810E94A925000F111FF801EF5EF0
:1051D000FC4F80819181C826D926D182C0828090DF
:1051E000260390902703092C000CAA08BB08809185
:1051F000100190E0E6E2F3E021E030E03296821721
:1052000093070CF011C18091220390912303A09188
:105210002403B09125032FB7F894409003065090D3
:10522000040660900506709006062FBF481A590ABA
:105230006A0A7B0A1091100189EC48165104610436
:10524000710414F18091210390E0019669E170E00E
:105250000E94982E80932103880F991FFC01EA5D1C
:10526000FC4F11821082812F183108F087E18F5F87
:10527000809310010E94A30D609322037093230377
:10528000809324039093250392E089169104A1044E
:10529000B1040CF4D6C0A0E6BAEEA50194010E94B8
:1052A0008F2F4B015C01A8EC1A9F90011124032E53
:1052B000000C440B550B240D351D461D571DA5E054
:1052C000B0E00E948F2F9B01AC01C501B4010E9488
:1052D000252E29013A01B1EF4B16510461047104E6
:1052E0002CF090EF492E512C612C712C80911D03D4
:1052F00090911E03A0911F03B09120032FB7F89443
:105300008090030690900406A0900506B0900606D3
:105310002FBF881A990AAA0ABB0AE5E68E169104DD
:10532000A104B10484F00E94A30D60931D03709347
:105330001E0380931F039093200380916103809349
:105340001C0340921B0310911C03A0911B03A11B83
:10535000BB0BA50194010E949A2F24E630E040E0A7
:1053600050E00E94702F120F1093610380919D03F3
:105370008823D1F180919C03E091F003E695E81B2E
:10538000E0939803823009F060C0F0E0EC56FB4EE9
:10539000E4910E2F10E081E1C82E85E1D82E809196
:1053A0009903882361F0109299030E94031C909343
:1053B00097038093960310929B0310929A030E9486
:1053C000031CE0919603F09197038E1B9F0B8F3F78
:1053D0009F4750F4E00FF11FF0939703E09396037B
:1053E00086E993E0F6010995B12CE12C04C17F5FB9
:1053F000CC0CDD1C703109F0CBCE0F5F1F4F053098
:10540000110509F0B6CE8FEF8E838F8318860E9428
:10541000031C8160782F9A8789874E815F81688518
:105420008A850E94A925DBCE40815181052E000C82
:10543000660B770B840E951EA61EB71E2F5F3F4F7F
:10544000DDCE412C512C320151CF863059F4F0E0A1
:10545000EF56FB4EE4910E2F10E0B1E0CB2EB5E1FC
:10546000DB2E9DCF893061F4E695F0E0E257FB4EEC
:10547000E4910E2F10E0AEEACA2EA4E1DA2E8FCF0F
:105480008F3061F4E695F0E0E557FB4EE4910E2F86
:1054900010E0F9E4CF2EF4E1DF2E81CF853159F40D
:1054A000F0E0E857FB4EE4910E2F10E0EBEFCE2E2C
:1054B000E3E1DE2E74CF04EF11E064ECC62E63E16D
:1054C000D62E883109F46BCF00ED17E05EE9C52ECA
:1054D0005DE0D52E893109F062CF8E2F63E00E9406
:1054E0007E2EE92FF0E0EB57FB4EE4910E2F10E0FB
:1054F00075E2C72E75E1D72E52CF0B2D10E0E3B128
:10550000E5FBEE27E0F91C9938C080E08E2BD8012E
:10551000A15ABC4FEC919E2F9370891709F46AC071
:10552000EE0FEE0FE82BEC93EF70F0E0E55FFD4F30
:105530009801235A3C4F69018081D9019C91890FC0
:105540008C9320E0843014F1F801E45AFC4F808100
:105550008F5F8083609158037091590380915A0343
:1055600090915B030E94E211823059F0833039F050
:10557000813051F50E94B31D06C082E0C7CF0E9462
:1055800033160E944D160E94D81D21E0F60180813D
:105590008D3F24F5F801E45AFC4F808181508083CF
:1055A000609158037091590380915A0390915B0365
:1055B0000E94E211823069F0833049F0813009F0B5
:1055C0003CC10E94BD1D07C00E941916DCCF0E947D
:1055D00040160E9457160E94D81D21E0D6018C91DA
:1055E000082E000C990B64E070E00E94982EF601E2
:1055F0008083E22AB39480915E03B81608F47DCFCD
:10560000E1100E94A30D8091FC05882309F4D7C006
:10561000209161033091110184E690E0239F80196D
:10562000910911248832910514F488E290E0092E42
:10563000000CAA0BBB0B80936A0390936B03A0939F
:105640006C03B0936D03222309F4FAC00E94F21296
:1056500040916603509167036091680370916903FC
:105660002FB7F8948091030690910406A091050647
:10567000B09106062FBF841B950BA60BB70B40916C
:105680006A0350916B0360916C0370916D0348172E
:1056900059076A077B0760F40E94A30D60936603B5
:1056A0007093670380936803909369030E946C1260
:1056B0000E94A30D6093620370936303809364035D
:1056C000909365038091FC05882309F45FC02091C5
:1056D000F5033091F6032115310509F457C0809187
:1056E0008F03811153C0082F10E06101082E02C002
:1056F000CC0CDD1C0A94E2F7A9014C215D21452B5D
:1057000009F4E7C090918E0390FDE5C08295880F63
:1057100080768093140198013695279536952795C4
:1057200020931701815E809315011092180124E6E1
:1057300030E047E050E062E171E088E70E94C52D6B
:10574000892B21F5A80195E0440F551F9A95E1F7A3
:1057500080918E0380FDCDC049505C4F04E610E07F
:1057600020E230E060E488E70E94E62D892B71F4A6
:105770000E94F212C094D0948091F5039091F603A8
:10578000C822D922D092F603C092F5038091FB057E
:105790008823A9F00E94A30D0091F7051091F80548
:1057A0002091F9053091FA05601B710B820B930B68
:1057B0006F3F7F4F8F4F9F4710F40E94D712F11019
:1057C00001C0E1100E94F2120E943A0E90919003E3
:1057D000891721F0809390030E94DB11809193033D
:1057E0008111E9CB80919103909192030E94F41B67
:1057F00081369A4E08F4DCCB10929D03809195037C
:10580000811117C0F1E0F09395038091F003982F78
:105810009170909394038E7F8093F0030FEF10E7C5
:1058200022E0015010402040E1F700C000000E943B
:105830008F1331E030939303BBCB0E942616CBCE5F
:10584000409162035091630360916403709165031A
:105850002FB7F8948091030690910406A091050655
:10586000B09106062FBF841B950BA60BB70B813694
:105870009A4EA105B10518F00E94D71223CF40918E
:1058800066035091670360916803709169032FB7B5
:10589000F8948091030690910406A0910506B091BA
:1058A00006062FBF841B950BA60BB70B85369105FB
:1058B000A105B10508F406CF0E94A30D609366030D
:1058C0007093670380936803909369030E946C123E
:1058D000F9CE8F5F08CF880F880F880F809314014F
:1058E00010921701895F8093150183E0809318015E
:1058F0001ECFEEE6F3E080E2DF011D928A95E9F724
:10590000EFE1F2E0FC87EB876BE172E087E0882E45
:10591000AB85BC852D91BC87AB87FB014190BF0156
:10592000440E552E511C820109501C4F2801E22FB4
:10593000F0E0E259FC4F90E080E0682C681A922C6D
:10594000082E01C0990C0A94EAF78201A12CD80113
:10595000BD908D01B920262D2A192770722E022E96
:10596000000C330BBB2D01C0BB0F7A94EAF77B2EE2
:105970003195219531092770332701C0B6942A95B6
:10598000EAF77B28B0807B287082A39428E0A212DB
:10599000DECF019631968830910579F683E292E068
:1059A000AB85BC858A179B0709F0B2CF04E610E0EF
:1059B00020E230E04EE653E0D5CE8F938FB78F9341
:1059C0009F93EF93FF9390918106809180069813A7
:1059D0000AC088E98093C900FF91EF919F918F9150
:1059E0008FBF8F911895809180068F5FE82FF0E030
:1059F000EE57F94F90819093CE0080938006ECCFC4
:105A00002F932FB72F938F939F93EF93FF939091A3
:105A1000CE0080913F068F5F803408F080E02091B7
:105A20003E06281739F0E82FF0E0E05CF94F90834C
:105A300080933F06FF91EF919F918F912F912FBF00
:105A40002F9118951092B9008CE08093B8000895BA
:105A5000B0E0A0E0EEE2FDE20C944E2EB82EEB0199
:105A60000E94031C6C01EE24E394F12CC431D10597
:105A700060F025E0E22EF12CCF3FDC0731F0CE01C3
:105A800064E170E00E94112E7B0184EAA82E94E864
:105A9000992E1092BC00A092BC000E94031C8C01A5
:105AA0008091BC0087FF0DC08091B900887F88304D
:105AB00001F18091B900887F8031D9F00FEF1FEF9D
:105AC00009C00E94031C801B910B8E159F0540F39B
:105AD0000EEF1FEFCF3FDC07E1F2C6010E94F41B7F
