:100000000C94E20B0C941B0C0C941B0C0C941B0C0E
:100010000C941B0C0C941B0C0C941B0C0C941B0CC4
:100020000C941B0C0C941B0C0C9466290C94562AF3
:100030000C94281C0C941B0C0C941B0C0C941B0C87
:100040000C941B0C0C941B0C0C941B0C0C941B0C94
:100050000C941B0C0C9442290C941B0C0C941B0C40
:100060000C941B0C0C94452C0C94222C0C941B0C03
:100070000C941B0C0C941B0C0C941B0C0C941B0C64
:100080000C941B0C0C941B0C0C941B0C0C941B0C54
:100090000C941B0C0C941B0C0C941B0C0C941B0C44
:1000A0000C941B0C0C941B0C0C941B0C01083000C2
:1000B000100000E17FC0000800001CC0020000002A
:1000C000007000F7FF0900010800800000800100B7
:1000D000040000F7FF00000000180000800000404E
:1000E00000000CF0720020000000000480000300FB
:1000F000010010F81F0C800000C0011C000000006F
:10010000000780FFFF00108000000820001800405A
:10011000000000FFFF010000800100000800000453
:1001200000C000E0C30002000000400008300010E2
:10013000000001FCFF000800001CC00100000000DE
:10014000700080FFFF0101080080000280010004B0
:10015000000080FFFF0300001800000000004000C6
:10016000000C00820F20000000000480000300014A
:10017000001000FE1F800000C0011C800000000075
:10018000070000FFFF138000000820001800400057
:10019000000084FFFF070080010000000000040051
:1001A000C00020601E020000004000083000100067
:1001B000000100FE0F0800001CC0010800000070D4
:1001C000000080FFFF03080080000200010004001F
:1001D000004000FFFF0F00180000008000400000FA
:1001E0000C0002E078000000000480000300010021
:1001F000100000EF830000C0011C80000000000719
:100200000000C0FFFF8F0000082000000040000039
:10021000000400FFFF07800100000018000400C078
:1002200000200080030000004000080000100000D3
:100230000100C0FB0800001CC00108300000700075
:100240000000E8FFFF0F0080000200000004000033
:10025000400080FFFF031800000080014000000CF8
:1002600000020020070000000480000000010010D0
:1002700000000CBC0000C0011C800003000007004F
:100280000080E0FFFF0700082000000040000000A1
:100290000400E0FFFF870100000018000400C00018
:1002A000200000020000004000080000080080005C
:1002B0000060000C10000EE0000418000038000080
:1002C0000004E0FFFF0340000100000002000020E6
:1002D0000000E0FFFF0F000000C00000000006006B
:1002E0000100100000000002400000200000040097
:1002F00000032000FF70000720C00040C001000084
:100300002000E4FFFF0702080000000000000001D9
:100310000000E0FFFF0700000006001000300008AA
:10032000008000800000100002000001004000007A
:10033000300002803F077000020C00041C00000027
:100340000240E0FFFF2780000000000000001000D6
:100350000000E0FFFF0000006000000100038000DB
:10036000000800000100012000001000000400004F
:10037000032000E07F000720C000400001000020B3
:100380000004C0FFFF030800000000C000000100DF
:100390000000E0FFFF010000060010003000080030
:1003A000800000060010000200000100200000187C
:1003B000000100F003380001060002000000000107
:1003C0002000E1FFFF4100000000000E00080000D7
:1003D0000000E0FFFF01003000800000014000004D
:1003E0000400007E80001000000800800100C000B2
:1003F000080000FCF00108300010000000000800B8
:100400000108C0FFFF010000000070004000000074
:100410000000D8FFFF01800100040000000200205E
:10042000000000FF058000004000000C00000C8070
:100430000000C0393C800003000100100080001063
:10044000800000FFFF010000000007000400000022
:100450000080C1FFFF0018004000000020000002E3
:10046000000000FF030800000400C00000C00008F6
:1004700000001CCE0F083000100000010008000131
:10048000080000FFEF000000007000000000000006
:10049000001880FFEF8001000400004002002000EF
:1004A000000000FE8700004000000C000006400035
:1004B00000E000CF438001800000080040000840B9
:1004C000000084FFFF000000800300000000000027
:1004D000C00000FFFF0D002000000002000001002E
:1004E000000020F81F000002006000103000020031
:1004F000000770F0030C00040040000002400002FE
:100500000020C0FFFF0100001C00000000000000F0
:10051000060080FFFF01000100001000000800003D
:10052000000001FC3F0010000003800003200000D9
:1005300070000778C600400000040000000420009E
:100540000002E8FFFF0100C0010000200000006081
:100550000000C0FFFF00100000000100800000004C
:10056000001000FA7F0001003000080000020000C7
:100570000770001E0F000400400000304000020021
:100580002080F0FFFF00001C0000000200000006B9
:100590000000C0FFFF010100001000000800000083
:1005A000000120F07F1000000380000010000038E0
:1005B000800310C001200000020080010210000032
:1005C0000104E0FFFF00E000000010000000300028
:1005D0000000F0FFFF0B00008000000000000000A2
:1005E000080001C0F7000018000400400000C0012E
:1005F0001C8000E30001001000000C808000000857
:100600002000C0FFFF0107000080001000800100F3
:100610000000F8FFFF070000040000000000004099
:1006200000080000DF00C0002000000200001CC025
:10063000010830001000000100C000080800800020
:100640000200E0FFFF770000000800010018000032
:100650000080E1FFFF0700400000000000000004F0
:10066000800000403C000C000200200000C0011C83
:100670008000030001001000000C80000000082032
:100680000000E0FFFF0700008000108080010000F4
:100690000018C0FFFF070004000000000000400039
:1006A0000800000C10C0002000000200001CC00167
:1006B0000830001001000100C000080000800002A6
:1006C0000000E0FFFF07000008000108180000001C
:1006D0008001E0FFFF0740000000000000000480F0
:1006E000000040FF000C000200200000C0011C8040
:1006F00000030081001000000C80000000082000B2
:10070000000000FFFF0700800010800001000000D3
:100710001800E0FFFF070400000000800040000810
:10072000000004FCC1002000000200001CC0010801
:1007300030001000600100C00008000080000200CE
:10074000000080FFFF070008000108000000008093
:100750000100C4FFFF4300000000001800048000F7
:10076000004000F00F00020020000000011C80008B
:10077000030001007E00000C800000C00820000083
:10078000000080FFFF0780001080000000000018BC
:10079000004080FFFF0700000000800140000800CB
:1007A000000400C00F20000002000000C00108305B
:1007B00000100080FF00C0000800001C00020000C4
:1007C0000000F0FFFF030800010800800000800126
:1007D000000480FFFF0300000000180004800000F8
:1007E0004000000E1F020020000000001C800003DB
:1007F000000100D0FF000C800000C00120000000BC
:10080000000007FFFF8300108000000800001800B0
:10081000400080FFFF000000008001000008000091
:100820000400C03C3C000002000000400410C0C0B6
:100830000402C0E0E0E0E0E0E0C0C08060600410DE
:100840003810040E80020702F0F8F8FFFFFFE3CD36
:100850009EBEBEBEBEBEBE1C808010100303081F1D
:100860003F3FFFFFFFFF3F3F3F3FFFFFFF3FC0C056
:1008700020200C0C0307070340030303202010C0B3
:10088000C0040280E0E0E0E0E0E06060406060041E
:10089000103810040E0402070240E0F0C03FFFFFD2
:1008A000E3CCDE9EDFDFDFDFDFCE801010800303CE
:1008B00008073F7F7807FFFFFFFFBF3F1F1F7FFF36
:1008C000FFCEC0C020200C0C400707070301012009
:1008D0002010C0C00402C0C0C0E0E0606060A08022
:1008E0008080606004103810040E0402070280C08B
:1008F000C53FFFFFE7EECEDFDFDFEFEFF7F3E0808E
:100900008010108003030801071F7FFCF38F7FFF17
:10091000FFFFFF1F1F0F1F7F7F70C0C0200C0C4008
:100920000107070703202020C0C0040280C0C0E0E8
:10093000E06020A0C0C0E08004103810040E041055
:100940000207028F3F7FFFE3CEDFDFDFCFEFF7FB52
:10095000F8F8E0C080801010800303080102071F30
:100960003E7DF3E7DF3FFFFFFFFFCF07070F1F1FAE
:1009700018C0C0200C0C40010101030303202020FB
:10098000C0C0040280C0C0E06080C0C0C0C080049D
:10099000103810040E04100207020E7FFFFFE5DE80
:1009A000DFDFDFCFE7F3F9FCFCF8F0E0C0101080E8
:1009B0000308010E1E3C79FBF7EFDFBF7FFFFFFF4F
:1009C000E7C30103070702C0C003200C0C4001016C
:1009D00001010121012020C0C004028080C0C0C0EC
:1009E000C0E0C0C004103810040E04100207023C1E
:1009F000FEFFFFEB9CBF9F9FDFE7F9FCFEFEFCF8CC
:100A0000F8F0E0C0801010800801081D397B77F7EE
:100A1000EFEFDFBF3F7F7FFFF1F0400101C0C00378
:100A200003200C0C40010121202004026060808022
:100A300080C0C0C0C004103810040E0410C0C00232
:100A400007028060FCFEFFE3BC7F3FBF9FC7F8FF4B
:100A5000FFFEFEFE7C3C78707010108008010103E0
:100A6000137B7777F7EFEFEFDFDFDF3F3F3C7C383B
:100A700030C0C00303200C0C4020010101202004E1
:100A800002606080C0808004103810040E0410C022
:100A9000C002070280F8FCFEC7B87FFF7F3F87F8DF
:100AA000FFFFFFFFFFFE1E1C1C1C0C108008010135
:100AB00003030707276EEEEFEFEFEFEFEFEFFF1FF8
:100AC0001E1E1E1E0CC0C00303200C0C4020202044
:100AD00004026060048080103810040E0410C0C04E
:100AE00002070280E0FCF00EFFFFFF7F3887FFFF68
:100AF000FFFFFFFFFF8787878010800801070F0F28
:100B00000F1E1D1EEEEFEFEFEFEFEFEFEF77270772
:100B10000707C3C003030C0C4020202020026060A4
:100B2000048080808080808080103810040E041043
:100B3000C0C0040207028080F0E01CFEFEFEFEF052
:100B40000FFFFFFFFFFFFFFFE3C3C1E0E0C0108026
:100B500001071F3F3E3D3F391CDEDFEFEFEFF77728
:100B6000777BBB130101010303080C0C402001201B
:100B700020200260600480C0C0C0C0E0C0103810F7
:100B8000040E0410C0C0040207028080C03078FC4C
:100B9000FCFCF2CE3FFFFFFFFFFFFFF1E0F0F0F8BB
:100BA00070301080010F3F7E797F7F7779383FDF8B
:100BB000EFEFF7777B391D1C0303080C0C40200175
:100BC000202020026060048080C0C0E0F060103807
:100BD00010040E0410C0C004028080F0F0F0F0E4B5
:100BE000DEBF7FFFFFFFFFFCF8F0F8FC7C3C1C80C1
:100BF000020701173E79F3F7FFFFF7F07F3FDFEFC2
:100C0000F7FB793C1E0F070303080C0C4020010181
:100C1000202020026060048080C0E0F870040E0490
:100C200010C0C00480801080C0E0E0D8DCBE7F7FB0
:100C3000FFFFFFFCFCF8FC7FBFDF8680020702019C
:100C4000083B73F7EFDFFFFFE0F3FF3F5FE7F37D64
:100C50003E1F07030303080C4020010303030101A7
:100C60002020200C0260600410B880F0F0608080CA
:100C7000840E0410C0C004808010808080B87E7F05
:100C8000FFFFFFFEFCFCFCFFFF3FC7E0E0020702A6
:100C900001C0C0276FEFDFDFBFDEFCC1FFFF3F0FEA
:100CA000737C7F1F07010303084020010103030336
:100CB000030301012020200C0C606004103810E0B8
:100CC000E0E0C4CEC48010C0C0040280801060FE8A
:100CD000FFFFFFFFFCFCFCFEFFFF3FC1F8F86002D6
:100CE000070201C0C00C1EBFBEBEBEBEFDB1C7FF25
:100CF000FFFF07383F1F07030308402001010303DC
:100D000007072707030120200C0C6060041038102F
:100D1000C0C0C0040EC4E0E0C010C0C004028080A7
:100D200010FCFFFFFFFCFCFCFCFFFFFFFFFCFCF8DE
:100D3000020702C0C0387D7D7D7D7D7D79B3C7FF10
:100D4000FFFF1F1F0F0303080140200123030707B4
:100D5000070707070320200C0C6060041038108080
:100D6000840E04C0E0E0E010C0C0040280801010D7
:100D700073FFFFFEF8F8FCFDFFFFFFFFE01EFEFC27
:100D8000E0020702C0C073FBFBFBFBFB797B33C7B0
:100D9000FFFFFC030F0702030308012020020606E1
:100DA00007070707270701200C0C40606004103874
:100DB00010040E04C0E0E0E08010C0C00402808097
:100DC00010100EFEFEF8F0F8F8FFFFFFFFFEF1CF67
:100DD0003FFEF8E080020702C0C00107CFEFF7F73F
:100DE000FBFBFB7377E7FFFFFCA303010801202057
:100DF000010101250606060707030303200C0C402A
:100E0000606004103810040E04C0C0D0808080C020
:100E1000C004028010108018F8F8F0E0E0F3FFFF43
:100E2000FFFFFCFBE7CFBE7CF8E04002070280C07A
:100E3000C00103071F1FDFEFF7F3FBFBFB73C7FFC7
:100E4000FEFCF1080120202001030303050406072E
:100E500007030301200C0C4004103810040E04900A
:100E6000808080808080400402606080101080401C
:100E7000E0E0C080C3E7FFFFFFFEFDFBF7EFDF9E72
:100E80003C787002070280C0C003070F1F3F3F9FDE
:100E9000CFE7F3FBFBFB7BA7FFFFFE7008012020E1
:100EA000200103030303010607030301200C0C4088
:100EB00004103810040E04108080800402606080EA
:100EC0001010808080020F8FFFFEFEFCFDFBF7F705
:100ED000EFEEDE9CB81002070280C0C00103070FCE
:100EE0001F1F3F7F7F3F9FE7FBF9F9FD39D7FFFFCA
:100EF0007F3C080120200303070303030301210CA7
:100F00000C4020103810040E0410C0C080808004F3
:100F1000026060041010800C1C3E3CFCFCFBFBFBE0
:100F2000F7F7F7EFEEEEDEC8C0800207028080C060
:100F3000C003010E0E1E3C3E7F7F7FFFFF1FE3F9C3
:100F4000FDFCFE3DC7FF7F3F060120200303230376
:100F50000101010C0C4020103810040E0410C0C018
:100F600004026060041010803078787878F8FFF719
:100F7000F7F7F7F7F7F77776E4E0E0C0C08002070D
:100F8000028080C0C0030330383838787FFFFFFF0D
:100F9000FFFF1FE1FCFEFFFE1DE37F3F1F0120203E
:100FA00020010103010C0C4020103810040E041025
:100FB000C0C004026060041080C0E0E0E0E4EEF72E
:100FC000F7F7F7F7F7F7F77778B878F0F2F7E28006
:100FD0008010C0C0030301E1E1E1FFFFFFFFFFFF5D
:100FE000FFE11CFEFFFFFF700F3F070120202001E3
:100FF000010C0C4020103810040E0410C0C00480F6
:10100000026060041080808080C8DCDEEEEEEFF7C6
:10101000F7F7FB7B389CFDBE7CFCF8E0808010C0BD
:10102000C0030303070783C3C7FFFFFFFFFFFFFFE3
:10103000F00F7F7F7F7F38070F0120202001010103
:1010400001010101010C0C4020103810040E0410A5
:10105000C0C0048002606004108038B89CDEEEEFEF
:10106000F7F7FBFC1C9EEEFEFE9E7EFCF0808010DF
:10107000C003030C0E1F0F0F078FFFFFFFFFFFFFC3
:10108000FC734F3F3F3F1E0C0301C020202003078D
:1010900003030303010C0C4020103810040E04104D
:1010A000C0C0048080026060041080E0F0783C9E44
:1010B000DFEFF7FBFCFE0FEFFFFFEFCF9E7CE8803A
:1010C0008010030308383C3E3F1F0F1F3FFFFFFF08
:1010D000FFFEFD7B270F0F0F0F01C0C02020200651
:1010E0000F070303010D0C402010040E0410C0C0B4
:1010F000048080C0C2C08060600410381080C0E2EC
:10110000FB7CBECFE7FAFCFFCF07FFFFFBF7EFCE7C
:10111000DC1080801003030861FBFDFE3F1F3F3F92
:10112000FFFFFFFEFE7D3B1B07070301C0C0202021
:10113000200E0F070301014020040E0410C0C0045C
:101140008082C0C0C0C0C080806060041038108041
:1011500002070280E0F8FE3ECEF0FCFFFF833F7BFB
:10116000FDFBFBF7F6E4808010100303080707E39C
:10117000FCFFFF3F3F3F7FFFFFFFFE7E1D010101A0
:10118000C0C020202001090D060F0F0101402004DE
:101190000E0410C0C0040280C0E0E0E0E0C0C080E7
:1011A0008060600410381080020702E0F8FC1CE048
:1011B000FFFFFFE38DBF7D7D7D7DFD78308080105A
:1011C00010030308061F1F83FCFFFF7F3F3F3FFF05
:1011D000FFFFFF7F06C0C020200C0C0103030307A4
:1011E000070740202005010980A101850319012A74
:1011F000B700150126B700950175108100C0050CD8
:101200000901A101850419012AA002150126A002E5
:10121000950175108100C005010906A1018506052B
:101220000719E029E71500250195087501810205D8
:1012300007190029EF1500250195F07501810205B8
:10124000081901290595057501910295017503910C
:1012500001C005010906A101050719E029E71500EC
:101260002501950875018102950175088101050721
:10127000190029FF150026FF009506750881000555
:10128000081901290515002501950575019102959B
:101290000175039101C009023B00020100A0FA0997
:1012A0000400000103010100092111010001224491
:1012B0000007058103080001090401000103000083
:1012C00000092111010001226D00070582032000A1
:1012D000011201000200000008616E60600100015F
:1012E0000200010E034E004900420042004C00453E
:1012F00000000012036E0075006C006C0062006953
:10130000007400730000000403090400AE00AF2263
:1013100023252628292A2C2D2F3032333536383AEA
:101320003B3D3E4042434547494A4C4E5051535540
:1013300057595A5C5E6062646668696B6D6F717361
:101340007577797B7D7F81838587898A8C8E909262
:101350009496989A9C9E9FA1A3A5A7A8AAACAEAF6D
:10136000B1B3B4B6B8B9BBBCBEBFC1C2C3C5C6C7B2
:10137000C9CACBCCCDCED0D1D2D2D3D4D5D6D7D763
:10138000D8D9D9DADADBDBDBDCDCDCDCDCDDDDDDAB
:10139000DDDCDCDCDCDCDBDBDBDADAD9D9D8D7D7A7
:1013A000D6D5D4D3D2D2D1D0CECDCCCBCAC9C7C654
:1013B000C5C3C2C1BFBEBCBBB9B8B6B4B3B1AFAE92
:1013C000ACAAA8A7A5A3A19F9E9C9A989694929038
:1013D0008E8C8A89878583817F7D7B797775737110
:1013E0006F6D6B6968666462605E5C5A59575553ED
:1013F00051504E4C4A4947454342403E3D3B3A38A6
:1014000036353332302F2D2C2A2928262523220049
:1014100001010101010101010102020202020202B5
:101420000202030303030303030304040404040488
:10143000040505050505060606060607070707074E
:1014400008080808090909090A0A0A0B0B0B0C0C01
:101450000C0D0D0D0E0E0E0F0F0F1010111111129D
:101460001213131414151516161717181819191A1C
:101470001A1B1B1C1D1D1E1E1F202021222223247F
:1014800024252626272829292A2B2C2D2D2E2F30BE
:10149000313232333435363738393A3B3C3D3E3FD2
:1014A000404142434445464748494A4C4D4E4F50BF
:1014B000515354555658595A5B5D5E5F616264657D
:1014C0006668696B6C6D6F7072737577787A7B7D07
:1014D0007E8082838587888A8C8E8F91939596985B
:1014E0009A9C9EA0A2A3A5A7A9ABADAFB1B3B5B777
:1014F000BABCBEC0C2C4C6C9CBCDCFD1D4D6D8DB4E
:10150000DDDFE2E4E7E9EBEEF0F3F5F8FAFDFF00EA
:10151000DA0281FFD9F1DB20A4A62EAF00A0C0D350
:101520000000A1C8D30000AED580A81F408D1420B4
:10153000001E0F057F3F1F643214643214783C1E76
:101540001E140A05640029001E001F00200021004F
:101550002200230024002500260027002D002E0055
:101560002A004A0020782B0014001A0008001500F9
:1015700017001C0018000C00120013002F00300090
:1015800031004C0035003900040016000700090046
:101590000A000B000D000E000F00330034000000A5
:1015A00028004B00A900E1001D001B0006001900E7
:1015B000050011001000360037003800E50000007B
:1015C00052004E00AA00E000E300E200000000002C
:1015D0002C00000000002152E600E4005000000052
:1015E00051004F00010001003A003B003C003D006B
:1015F0003E003F00400041004200430044004500DF
:1016000001004D0001000100010001000100010086
:1016100001000100010001000100010001000100C2
:101620000100490001000100AE00AC00AB00010068
:1016300001000100010001000100010001000000A3
:10164000010046000100010001000100010001004D
:101650000100010001000100010001002252000010
:1016600001000100A60001000100010000000000CF
:101670000100000000000100010001000100000065
:101680000100010001000100010001000100010052
:101690000100010001000100010001000100010042
:1016A0000100010001000100010001000100010032
:1016B0000100010001000100010001000100010022
:1016C0000100010001000100010001000100010012
:1016D0000100010001000100010001000100000003
:1016E00001000100010001000100010001000100F2
:1016F00001000100010001000100010001000000E3
:10170000235201000100010001000100000000005F
:1017100001000000000001000100010001000000C4
:1017200001000100010001000100010001000100B1
:1017300001000100010001000100010001000100A1
:101740000100010001000100010001000100010091
:101750000100010001000100010001000100010081
:101760000100010001000100010001000100010071
:101770000100010001000100010001000100000062
:101780000100010001000100010001000100010051
:101790000100010001000100010001000100000042
:1017A0000100010001000100010001000000000033
:1017B0000100000000000100010001000100000024
:1017C0000100010011241FBECFEFDAE0DEBFCDBF64
:1017D00004B603FE19C08091BA079091BB07A0918F
:1017E000BC07B091BD078730904BA740B04B61F468
:1017F0001092BA071092BB071092BC071092BD0757
:10180000E0E0F8E3099500C027E0AEE7B2E001C0F0
:101810001D92AA3BB207E1F712E0A0E0B1E0E0E6DA
:10182000FCE502C005900D92AE37B107D9F70E94D2
:1018300005240C94F02D0C94000081FF03C08098C7
:1018400088980895809AFCCF809328069093290663
:10185000089580932A0690932B06089521E030E0A6
:1018600002C0220F331F8A95E2F780912A069091D9
:101870002B06822B932BEDCF21E030E002C0220F0C
:10188000331F8A95E2F72095309580912A06909132
:101890002B0682239323DDCF953088F5803178F5B0
:1018A00020E1929FF0011124E80FF11D51E081FD2C
:1018B00054E080FD550F82FD529583E0F695E79543
:1018C0008A95E1F7EE0FFF1FEE0FFF1FE254FA4F6C
:1018D00020E030E070E04191DF01CB01022E02C038
:1018E000969587950A94E2F78695880B8427852339
:1018F00084278E932F5F3F4F2430310561F7089581
:10190000953068F5803158F520E1929FF00111245F
:10191000E80FF11D8770982F83E0F695E7958A957B
:10192000E1F7EE0FFF1FEE0FFF1FE254FA4F40E00A
:1019300050E080E0219130E0092E02C036952795D5
:101940000A94E2F72170042E01C0220F0A94EAF7EC
:10195000822B4F5F5F4F4430510561F7089580E05F
:101960000895E091310690913006E91302C080E0BD
:1019700008959F0157E0E59FF0011124EE5CF94FB7
:101980005181561306C05081581303C0558154131A
:1019900005C02F5F3F4FF901E770E7CF81E0089561
:1019A0008091310620913006281301C008950196D8
:1019B0008770FACF90912C068095892380932C060E
:1019C000282F277061F4891751F090912E0692FF0D
:1019D00006C08695869586954FDF10922C06089551
:1019E0008091250690912F06892B909126069115BE
:1019F000C9F0892B90911B01913021F490912D0613
:101A000097FD11C096E022E832E040E09150F901E4
:101A100050812F5F3F4F51114F5F9111F7CF41110F
:101A20001092260608959EE12AE832E0EECF8095D6
:101A3000982F809125068923809325060895753077
:101A4000E0F46031D0F48430D8F4E72FF0E095E092
:101A5000899FE00DF11D1124E295F295F07FFE279C
:101A6000E07FFE27E60FF11DEE0FFF1FEC5BFA4E45
:101A700085919491282F822F089520E090E0FBCF4C
:101A800021E0FCCF803E9105D1F1C8F4813391056E
:101A900009F481C048F48932910509F471C08A3291
:101AA000910509F47FC0089589339105E1F08238EA
:101AB0009105C9F08533910509F45DC00895843E10
:101AC0009105D1F148F4823E910531F1833E9105B3
:101AD00041F181EE90E00895863E9105C1F1873E87
:101AE0009105F1F1089520912D06237009F064C04D
:101AF00020912E0623FF14C089E290E008952091E2
:101B00002D0620FD45C030912E0630FF09C024FD72
:101B100024C083EE90E0089520912D0622FDF7CF9A
:101B2000089520912D0622FD44C030912E0630FDEF
:101B300043C024FFF5CF11C020912E0621FFF0CF26
:101B400080912D0684FD09C087EE90E008952091D4
:101B50002D0623FFE5CF24FFF7CF80E090E0089526
:101B600020912D0623FD2BC030912E0631FFE1CFB1
:101B700084EE90E0089520912D0625FFD1CFBCCFB3
:101B800020912D0625FD1EC020912E0623FFC8CFD3
:101B900089E390E0089520912D0626FFC1CF8AE2C7
:101BA00090E0089520912D0626FFBACF81E390E0C2
:101BB000089582EE90E0089580EE90E0089586EE1C
:101BC00090E0089585E390E0089590912D0692FFAE
:101BD00010C041E0282F2471243009F040E031E0AA
:101BE000282F2871283009F030E0431711F02CE03D
:101BF000822793FF10C041E0282F2471243109F07F
:101C000040E031E0282F2871283109F030E04317F7
:101C100011F02CE0822730912E0630FF10C051E0E9
:101C2000282F2171213009F050E041E0282F287140
:101C3000283009F040E0541711F029E0822731FFE5
:101C400010C041E0282F2171213109F040E031E03E
:101C5000282F2871283109F030E0431711F029E0CE
:101C6000822794FD877E08950F931F93CF93DF9370
:101C700009DFEC01D23508F04DC0D03508F0C3C003
:101C8000C03ED10530F5CD3CD10508F09AC0C83A28
:101C9000D10578F4C53AD10508F090C0C130D1051E
:101CA00099F1CE010497813A910570F1C0E0D0E03E
:101CB0002BC0CE01885A91094B97C0F7C85AD0E083
:101CC000CC0FDD1FC25ADE4F0990D881C02DD464DD
:101CD0001BC0D03490F4D03208F0A8C0C83ED10563
:101CE00098F0CE0191509F3108F78D2F6EDF082FAD
:101CF0008C2F90E0C7DE902B54C08C2F90E0C2DE7A
:101D0000DF70C82FD92BD06ACE01DF91CF911F9100
:101D10000F910895C03882E5D807B8F5C03682E53E
:101D2000D80708F056C0C03482E5D807C8F4C032DE
:101D300082E5D80708F047C08C2F8695869520E26B
:101D4000829FC0011124C37021E030E002C0220F45
:101D5000331FCA95E2F7E901C82BD92BDD68D4CF30
:101D60008C2F86958695877020E2829FC001112472
:101D7000C37021E030E002C0220F331FCA95E2F7A2
:101D8000E901C82BD92BDC68BFCFC03C82E5D8075E
:101D900050F48C2F8F71C03AD24580F5982F84EF84
:101DA000906AEC01B1CFCE01805C9245809708F03B
:101DB0007DCFDC2FDF71C0EFD06AA6CFA497D064AF
:101DC000A3CFD065A1CF8C2F8F71D82FC1EFD06A50
:101DD0009BCF8C2F86958695877020E2829FC001CD
:101DE0001124C37021E030E002C0220F331FCA95D6
:101DF000E2F7E901C82BD92BDA6886CFE6DEC0E02E
:101E0000D82FD06281CF8C2F8F71DFDE93E0CC0F83
:101E1000DD1F9A95E1F7DF70282F84FF04C090E161
:101E2000899F90011124C22FD0696ECF8D2F8F71A1
:101E3000CCDE082F8C2F90E025DE902BEC01E1CF3B
:101E4000CF92DF92FF920F931F93CF93DF936C019A
:101E500000912A0610912B06809128069091290660
:101E6000082B192BCFE0D0E081E090E00C2E02C0CF
:101E7000880F991F0A94E2F780239123892B61F43C
:101E8000219790F7F12C8F2DDF91CF911F910F911A
:101E9000FF90DF90CF900895FC2EB6018C2FCFDD00
:101EA000E3DE019769F3EFCF0F931F93CF93FC010C
:101EB000258100811181C801211571F0611561F042
:101EC000BFDFC82F682FC801E7DCB8018C2FB7DD52
:101ED000CF911F910F91089513DDC82FF6CFCF93A7
:101EE000DF93EC01ADDFBE01AADDBEDEDF91CF9155
:101EF0000895FC012481211599F080819181EFDF03
:101F0000282F92959F70963099F060F4925F9F70A1
:101F1000923030F4203FB1F038F481E0283E38F0C0
:101F200080E008959A5FF3CF81E0243FC9F70895D8
:101F300091E0213F09F090E081E0283E08F080E048
:101F4000892B089581E0089580E008950895CF9247
:101F5000DF92EF92FF921F93CF93DF93462F172FBD
:101F6000E82FF0E0E15FFB4E71110CC0E4918E2F81
:101F70007E2F6E2FDF91CF911F91FF90EF90DF901A
:101F8000CF900895F491EF2F86E0689FE00111242F
:101F90002FEF30E0CE01B9010E94672CDB01CA01AE
:101FA000880F991F65E56A9FA0016B9F500D112452
:101FB000841B482F440F480FC901811B9109F89FCA
:101FC0007001F99FF00C11248F2D149FB001112482
:101FD000672F70E06901C61AD70AB601F69F600143
:101FE000F79FD00C1124A330B10549F1B901641B4E
:101FF0007109AB01149FB001159F700D1124672F5B
:1020000070E0261B370BF29FA001F39F500D1124A7
:10201000752FCC3FD34050F4A130B105A1F01297F9
:1020200009F0A7CFEF2D852F7F2FA3CFA430B105C7
:1020300069F0169709F49DCF7F2D8D2D9ACF7D2DB8
:10204000EF2D8F2F96CF7F2FED2D93CFE52F7F2D67
:10205000F8CFCF93762FC22F682F842F78DF472FAA
:10206000282F8C2F90E006D2CF910895CF93DF9345
:1020700080911D0680FD0BC0C0E0D0E020E040E074
:1020800060E0CE01F7D12196CA30D105B9F70DD461
:10209000DF91CF910895FF920F931F93CF93DF931A
:1020A000182F062FF42E80911D0680FF0CC0C0E073
:1020B000D0E02F2D402F612FCE01DCD12196CA30E8
:1020C000D105B9F7D3DFCDB7DEB7E5E00C94C62C68
:1020D000762F90911D0690FF08C0682F842F37DF60
:1020E000962F672F482F892FD6CF0895CF93DF9350
:1020F000EC01EDE1F6E0438162818C81E9DF8C81C6
:102100008F5F8C83DF91CF910895CF93DF93EC01A4
:10211000EC81F0E0E15FFC4E4491EDE1F6E062819C
:102120008181D6DF8C818F5F8C83DF91CF91089581
:10213000FF920F931F93CF93DF93EC01F12C00E0FC
:1021400010E08C8198014091200660911F068F0D50
:1021500080DF0F5F1F4F89E1F80E0A30110589F704
:1021600085DF8C819A8190FF07C08F5F8C83CDB70C
:10217000DEB7E5E00C94C62C8150F8CFEF92FF92C9
:102180000F931F93CF93DF93FC018281EE24E3949E
:1021900080FF02C0EE24EA94C0E0D0E020E040E0FE
:1021A00060E0CE0167D104E010E0F12C80914303A0
:1021B0008F0D8B308CF16AE00E94E02C892F082E65
:1021C000001C00088C170D0679F4409120060403CA
:1021D000A001112455954795559547959E0160910D
:1021E0001F0680911E0635DFFE0C01501040F1F6EF
:1021F0002196CA30D10591F639DF809143039E2D97
:10220000913071F4811591F0815080934303CDB7E3
:10221000DEB7E6E00C94C52C87FFD1CF865FCFCF29
:1022200090E00196BE010E94ED2CEFCF89E0EDCF4A
:10223000CF93DF93C0E0D0E020E040E060E0CE014B
:1022400019D12196CA30D105B9F7C0E0D0E080910C
:102250004203082E001C0008C817D0055CF18091CD
:102260000C01082E001C00088C170D061CF19E01A5
:102270004091200660911F0680911E06EADE21969D
:10228000CA30D10521F7F2DE80910B019091420313
:10229000980F9093420320910C01280F20930C017A
:1022A000121614F499301CF0819580930B01DF9184
:1022B000CF91089520E040E060E0CE01DBD0DFCF99
:1022C0000F931F93CF93DF93EC0120E030E06091F8
:1022D0001F0680911E069C8189010F5F1F4F2530CC
:1022E00031053CF4911541F040912006B2DE980191
:1022F000EECF40912006911140E0ABDE98010A300C
:10230000110529F7B3DE8C81019681708C83DF91F2
:10231000CF911F910F910895FB01E95BFC4F9081D4
:102320009817B9F0808385E0769567958A95E1F7EF
:1023300021E030E002C0220F331F6A95E2F780915E
:10234000450390914603822B932B809345039093F2
:1023500046030895A0E0B0E0E0EBF1E10C94A72C77
:102360007C016B01ED018D01FE0183E0F695E7959F
:102370008A95E1F7EE0DFF1DE4918C2F877021E027
:1023800001C0220F8A95EAF7822FE82391F0F60127
:10239000E00FF11F8491BE01BFDF0F5F1F4F219639
:1023A000C11582E0D80701F7CDB7DEB7E8E00C949D
:1023B000C32CBE0180E0B0DFF2CF8091750690E0C3
:1023C000209174062F31E8F021E020931D01029640
:1023D0006EE170E00E94ED2C809375062DE130E0F7
:1023E000281B822F869590E0880F991FFC01E851E9
:1023F000FE4F6081718186539E4FFC0180819181E7
:10240000A9CF22E020931D0101966EE170E00E94A9
:10241000ED2C809375062DE130E0281B390BC901A6
:10242000880F991FFC01EE5BFD4F608171818A5F0F
:102430009D4FE3CF44B185E3861B8F7021E001C03F
:10244000220F8A95EAF7922F9095942394B995B12B
:10245000822F892B85B9089583B190E025E3261B4F
:102460002F7002C0959587952A95E2F7817008959F
:102470006E9A0895FC01EE0FFF1FE80FF91FEA5353
:10248000FD4F6183408322830895E091B405F0916C
:10249000B505309739F00190F081E02D309711F0BB
:1024A0000995089580E00895A3E0B0E0EAE5F2E13F
:1024B0000C94AD2C2091C2023091C3022817390729
:1024C000B1F08093C2029093C302E091B405F09101
:1024D000B505309761F00084F185E02D309739F033
:1024E00023E029838A839B83CE0101960995239655
:1024F000E2E00C94C92CA3E0B0E0E1E8F2E10C9436
:10250000AD2C2091C0023091C10228173907B1F0DB
:102510008093C0029093C102E091B405F091B5059B
:10252000309761F00084F185E02D309739F024E098
:1025300029838A839B83CE01019609952396E2E045
:102540000C94C92C90911B01913099F0A2E8B2E053
:10255000EFEF90E02C91821759F01196EF3F19F4AC
:10256000211101C0E92F9F5F9630A1F7EF3FC1F421
:10257000089590912D0697FFE9CFE82FE695E6950F
:10258000E695803FA8F7F0E0E857FD4F877021E01F
:1025900001C0220F8A95EAF78281822B82830895F7
:1025A000FE2FFF0FFF0BE058FD4FF8CF90911B015E
:1025B000913021F490912D0697FD0CC0E2E8F2E0F5
:1025C0009191891302C0DF011E9292E0E838F90769
:1025D000B9F70895E82FE695E695E695803FC8F7A8
:1025E000F0E0E857FD4F9DEF81FD97EF80FF959557
:1025F00082FD9295828189238283089580911A01B8
:1026000008952FB7F8946091BC027091BD0280913B
:10261000BE029091BF022FBF08950895FC018091E2
:10262000B2029091B3028617970748F061157105C1
:1026300029F48091E8008E778093E800CB0140E098
:10264000009741F4411106C08091E80082FF30C03C
:1026500080E00895209144032115B1F12530B1F1B6
:102660002091E80023FD2EC02091E80022FDECCF50
:102670002091E80020FFE4CF4091F3002091F20088
:10268000342F009719F02830310558F041E02830F8
:10269000310509F040E02091E8002E772093E80012
:1026A000CFCF41914093F10001972F5F3F4FE9CF8A
:1026B00080914403811541F0853041F08091E8001C
:1026C00083FFC2CF81E0089582E0089583E00895FA
:1026D000982F9093E900891771F07091EC00209188
:1026E000ED005091F00021FD09C09F5F973089F700
:1026F0008093E9000895762F242F50E03091EB006D
:102700003E7F3093EB003091ED003D7F3093ED0044
:102710003091EB0031603093EB007093EC0020932C
:10272000ED005093F0002091EE0027FDDECF0895DC
:102730008091AC0287FF13C08091E80082FF06C041
:102740008091E8008B778093E8000895809144039E
:102750008111F2CF0895809144038115D9F38091BE
:10276000E80080FFF8CF8091E8008E77ECCF2091D1
:10277000E4003091E50095E6A9012091EC00822F5C
:10278000817020FF06C08091E80080FF06C080E0D5
:1027900008952091E80022FD1AC08091440381151C
:1027A00089F0853089F08091EB0085FD0FC0209184
:1027B000E4003091E50042175307F9F29150E1F639
:1027C00084E0089582E0089583E0089581E008950B
:1027D000CF93DF93C8EDD0E088818F7E8883E7EDCB
:1027E000F0E080818160808384E082BF81E080931B
:1027F000AB0288818E7F8883E2EE10821092DA002D
:10280000A1EEB0E01C9288818F77888388818068F0
:10281000888388818F7D888319BC1092440310922D
:10282000AA021092A9021092A802A0EE8C918B7FAE
:102830008C9388818160888342E060E080E048DF9B
:10284000A1EEB0E08C918E7F8C93E2EEF0E080817F
:1028500081608083808188608083E0EE80818E7FCC
:102860008083888180618883DF91CF910895E8ED2E
:10287000F0E080818E7F80831092E2001092DA0077
:102880001092E100A0EEB0E08C9181608C93808189
:102890008F77808319BCA7ED8C918E7F8C9380817C
:1028A0008F7E80831092AB0208953EB13F7B2EB1A4
:1028B00020644FB7F89486EC92E0FC0101965081B9
:1028C00068E02EB9000000C057FF3EB9550F000068
:1028D00000C000C000C03EB900C06A9591F752E048
:1028E000843E950751F74FBF8FE594E00197F1F7CC
:1028F00000C0000008950F931F93CF93DF93EB0167
:102900008A0190914403943059F58093E9008FEF48
:102910009091E80095FD06C095ED9A95F1F70000BD
:102920008150B1F78091E80085FF1AC020DF811146
:1029300012C08091E80085FD06C08091E8008E7786
:102940008093E800F3CF88818093F100015010401C
:1029500011F02196EECF8091E8008E778093E80009
:10296000DF91CF911F910F910895CF93DF93EC01E9
:1029700048E050E0BC0181E0BEDF88E0FE01A4EB4E
:10298000B2E001900D928A95E1F7DF91CF91089521
:1029900040E250E0BC0182E0AECF43E050E0BC0139
:1029A00082E0A9CF90912E0692FB222720F92817CA
:1029B00079F080FB92F990932E0660912D0670912C
:1029C0002E0684E090E00E94A12D82E00C94DA0CA7
:1029D000089580911B01813069F580912D0687FF54
:1029E00029C00E94F00C8093890240E250E064E923
:1029F00075E088E892E00E94682D892BD1F080E292
:102A0000E8E8F2E0A4E9B5E001900D928A95E1F7DB
:102A1000E091B405F091B505309759F00480F58147
:102A2000E02D309731F086E08093880288E892E0CC
:102A3000099508950E94F00C8093800248E050E0D0
:102A400066EB75E080E892E00E94682D892B89F39F
:102A500088E0E0E8F2E0A6EBB5E001900D928A95FF
:102A6000E1F7E091B405F091B505309711F30280DC
:102A7000F381E02D3097E9F280E892E0D9CFCF934F
:102A8000C82F8115C1F08450813A70F580911B01E7
:102A9000813021F480912D0687FD0FC0E2E8F2E03D
:102AA0008081C817E9F0319682E0E838F807C1F76D
:102AB0008C2F48DD8EDFCF910895EC2FE695E695BB
:102AC000E695F0E0E857FD4F828190E04C2F47708B
:102AD00021E001C0220F4A95EAF78223892B41F3B6
:102AE0008C2F64DD76DFE4CF8C2F805E883060F43D
:102AF000C77081E001C0880FCA95EAF7C09125062A
:102B0000C82BC0932506D6CF8C2F855A833028F446
:102B10008C2F8452990BC8DCCECFC85ACB3158F6D3
:102B2000EC2FF0E0EE0FFF1FEC56FE4F80819181FD
:102B3000E2DCC1CF811511F1982F9450913A10F435
:102B400035DD47CF982F905E983058F4982F81E06C
:102B500091FD84E090FD880F92FD82950E94170DF3
:102B6000F0CF982F955A933018F480E090E09CCCE9
:102B7000885A8B3118F480E090E0BDCC08951F9303
:102B8000CF93DF93182FEB017ADF209731F4812F59
:102B9000D1DFDF91CF911F9108958FE99FE00197D9
:102BA000F1F700C000002197F0CF811531F090912E
:102BB0002506982B909325060CCF0895811519F0C2
:102BC0000E94170D06CF08951092250680911B01D3
:102BD000813099F480912D0687FF0FC0EAE8F2E07A
:102BE0008EE111928A95E9F780E090E05DDC80E06B
:102BF00090E081DC10922F06ECCEE2E8F2E086E075
:102C0000F0CFE2DF8FEF94E32CE081509040204042
:102C1000E1F700C0000088E19CE00FB6F894A895A9
:102C2000809360000FBE90936000FFCFAAE2B0E0F7
:102C3000ECE1F6E10C94AC2C8CEA92E0FC010196FC
:102C40002091F100208322E0843B9207B9F7809124
:102C5000AD02893009F457C0C8F4823009F4B2C01B
:102C6000833009F482C0813081F18091E80083FFD4
:102C7000E6C08091AC029091AD029A3008F0DFC0BE
:102C8000E92FF0E0EE50F24D0C94002D8A3009F45B
:102C900089C08B3051F78091AC02813231F780913D
:102CA000B0029091B102892B01F78091E800877FF3
:102CB0008093E8003DDD81E09091AE02911101C06A
:102CC00080E080931B0180DFD0CF8091AC02813AFD
:102CD00061F68091E800877F8093E8008091B002E0
:102CE0009091B102892B59F060E080E090E070E0B3
:102CF00095DC8091E8008B778093E800B6CF68E0A0
:102D000084EB92E0F4CF8091AC02813209F0ADCF38
:102D10008091B0029091B102029708F0A6CF809105
:102D2000E800877F8093E8008091E80082FF18C068
:102D30002091F3008091F200922F029731F480915C
:102D4000F100813011F0863021F48091F100809300
:102D50001A018091E8008B778093E800E9DC85CF49
:102D6000809144038111E0CF80CF8091AC02813A01
:102D700009F07BCF8091B0029091B102892B09F0CC
:102D800074CF8091E800877F8093E8008091E8000D
:102D900080FFFCCF80911B018093F1008091E800BF
:102DA0008E77DACF8091AC02813209F05ECF8091CC
:102DB000E800877F8093E800BBDC8091AF028093BE
:102DC000190153CF8091AC02813A09F04ECF809126
:102DD000E800877F8093E8008091E80080FFFCCFC7
:102DE00080911901D9CF803889F0823841F58091DE
:102DF000B0028F70873018F58093E9008091EB0066
:102E000085FB882780F91092E90006C08091A9020D
:102E1000880F9091A802892B9091E800977F90935A
:102E2000E8008093F1001092F1008091E8008E7725
:102E300023C0811116C08091AE02813009F18091CA
:102E4000E80083FF0AC08091E800877F8093E80054
:102E50008091EB0080628093EB00AA96E3E00C94F3
:102E6000C82C823061F78091AE02811579F0109202
:102E7000E9008091E800877F8093E80059DCDFCF8C
:102E8000933009F080E08093A902F1CF8091B002E5
:102E90008F70282F2150263090F68093E9002091E2
:102EA000EB0020FFE4CF933031F48091EB0080629F
:102EB0008093EB00DCCF9091EB0090619093EB005E
:102EC00021E001C0220F8A95EAF72093EA001092D0
:102ED000EA008091EB008860EBCF8111B0CF809148
:102EE000AE028F77182F8091E3008078812B80933A
:102EF000E3008091E800877F8093E80019DC8091EF
:102F0000E80080FFFCCF8091E30080688093E300BD
:102F100083E0111101C082E08093440390CF805878
:102F2000823008F08CCF2091AE023091AF022C3D60
:102F300083E0380789F583E08A838AE289834FB783
:102F4000F894DE01139620E03EE051E2E32FF0E03A
:102F500050935700849120FF03C082958F703F5F8C
:102F60008F708A30B8F0895C8D931D922F5F243169
:102F700069F74FBF8091E800877F8093E8006AE29D
:102F800070E0CE0101964ADB8091E8008B77809358
:102F9000E80055CF805DE8CF832F90E08330910526
:102FA00019F160F48130910509F46CC0823091050B
:102FB00009F045CF8BE3E6E9F2E129C02091B002A8
:102FC0003091B1028132910509F453C082329105EA
:102FD00009F035CF2130310508F45CC009F02FCF5E
:102FE0008DE6E5EEF1E113C0822F90E0213099F1FA
:102FF00082309105B9F1009709F021CFE7E0F3E1C4
:10300000E4918E2FE7E0F3E1009709F418CF2091C7
:10301000E800277F2093E8002091B2023091B302AC
:103020008217930708F49C0140E021153105B1F5A2
:10303000411134C08091E80082FDA6CF8091440305
:10304000811509F4A1CF853009F49ECF8091E80065
:1030500083FFF0CF99CFE3EFF2E1E4918E2FE3EF1E
:10306000F2E1D2CFE3EEF2E1E4918E2FE3EEF2E172
:10307000CBCF2130310550F009F0E1CE89E0E1EC11
:10308000F2E1C5CF82E1E1EDF2E1C1CF89E0E8EA0A
:10309000F2E1BDCF84E4E2E5F2E1B9CF80914403EF
:1030A000811509F471CF853009F46ECF8091E80065
:1030B00083FD6ACF8091E80082FDBCCF8091E8005B
:1030C00080FFB3CF4091F3008091F200942F21153F
:1030D000310519F08830910550F041E0089709F06A
:1030E00040E08091E8008E778093E8009ECF449185
:1030F0004093F1003196215031090196E8CF803894
:1031000009F09DCE8091E800877F8093E800809150
:10311000AA028093F10089CE811191CE8091AE02F6
:10312000182F823008F08BCE8091E800877F809343
:10313000E8001093AA02FCDA111599F084E080935C
:10314000440342E061EC81E0C3DA42E261EC82E0F8
:10315000BFDA80914403843051F482E080931C01F3
:103160006ECE8091E30087FDE9CF81E0E8CF81E07A
:10317000F5CF8F929F92AF92BF92CF92DF92EF9254
:10318000FF920F9388E090E00E947D2D4B015C013F
:1031900060931D0690921E0680931F06B092200633
:1031A00010922106109222061092230610922406F5
:1031B00083E290E00E94752D9401A50180921D0686
:1031C00030931E06A0921F0650932006809321067E
:1031D0001092220610922306109224060F91FF905F
:1031E000EF90DF90CF90BF90AF909F908F90089519
:1031F0000F93CF93DF93CDE1D6E0488159816A8167
:103200007B8188E090E00E94992D6C81262F60E000
:1032100070E0CB01622F83E20E94872DDF91CF9176
:103220000F91089585E080931D0610921E068FEF82
:1032300080931F0680932006109221068DE196E070
:10324000D7CF80912106833018F48F5F80932106B9
:103250008DE196E0CDCF80912106811519F0815046
:10326000809321068DE196E0C3CF0F931F93CF93F8
:10327000DF93D82F162FC42F022F80911D0680FFB9
:1032800022C0E82FE695E695F0E0EA5DFE4F9081DA
:1032900090931B068C7F8430D9F46D2F712F842F6F
:1032A0000E94A70F962F672F482F892F0E944B103F
:1032B000D0931E0610931F06C0932006011519F027
:1032C0008DE196E095DFDF91CF911F910F910895E9
:1032D000923019F4C0912006EBCF963019F4D091BA
:1032E0001E06E6CF993021F7FACFEDE1F6E08181B5
:1032F00021E0438162818F5FB8CFEDE1F6E081810B
:1033000021E0438162818150B0CFEDE1F6E062813E
:1033100025E0620F08F46FEF21E043818181A5CFA2
:10332000EDE1F6E0628125E0621B08F460E021E057
:10333000438181819ACFEDE1F6E0438125E0420FA0
:1033400008F44FEF21E0628181818FCFEDE1F6E05B
:10335000438125E0421B08F440E021E06281818145
:1033600084CFA0E0B0E0E7EBF9E10C94A32CFC01E2
:103370008281A82EB48081E08483EFE0F3E10491A0
:10338000EEE8F3E1E491E0902006E6948FE7E80EA2
:10339000F12CEE0CFF1CEF2CF12CC0E1D3E06D0101
:1033A0001FEFE01B8E2F90E04C018A2D833030F40C
:1033B00080911E06888380911F068983B11017C0F3
:1033C0001B821A8296014A81698188810E94291094
:1033D0008FEFC81AD80A25968AE0C816D10429F7B3
:1033E0000E943610CDB7DEB7ECE00C94BF2C8B8179
:1033F0008115E1F081508B83189FC00111246C81ED
:1034000070E00E94672C70E0FB01E15FFC4E84914C
:10341000801B189FC0011124B4010E94672C809169
:103420002006689FB00111247A83CCCF0E944D2DD5
:103430006FEF70E00E94ED2C8E159F050CF0C2CF4F
:103440008A2D833090F00E944D2D6FEF70E00E9426
:10345000ED2C88830E944D2D20911F062695622F0A
:1034600070E00E94ED2C280F29831A82809120069B
:10347000893C20F088EC8C838B83A4CF8431D8F7EF
:1034800084E1F9CFAB0124E630E0BC0188E70E947B
:10349000772B9C0181E0232B09F080E00895809137
:1034A00049058115E9F0ADD8DC01CB01805A954181
:1034B000AF4FBF4F80934A0590934B05A0934C05A7
:1034C000B0934D058091480581110AC062E070E01B
:1034D0008DE093E1D7DF811519F081E080934805F5
:1034E000089580914905811561F080914805811505
:1034F00041F062E070E08BE093E1C4DF8111109253
:10350000480508954F925F926F927F928F929F929B
:10351000BF92CF92DF92EF92FF920F931F93CF93C0
:10352000DF9380914905811509F42AC14091740601
:1035300020911D01249F900111242D3331050CF0A1
:103540002FC184E690E0821B930BA92FAA0FAA0B30
:10355000BA2F8093EC029093ED02A093EE02B09309
:10356000EF02411509F421C19ADFC090E802D09022
:10357000E902E090EA02F090EB0243D8DC01CB01D3
:103580008C199D09AE09BF094091EC025091ED02E2
:103590006091EE027091EF02481759076A077B07A6
:1035A00058F42FD86093E8027093E9028093EA02FE
:1035B0009093EB020E94DD1124D86093E402709393
:1035C000E5028093E6029093E70280914503909193
:1035D0004603892B09F4BAC080914905811509F485
:1035E000B5C0809147058111B1C059DF8091450375
:1035F00090914603009709F4A9C0C82FC170D0E08C
:1036000010E080FD0FC041E050E01F5FEA01012E95
:1036100002C0CC0FDD1F0A94E2F79E012823392354
:10362000232B99F380914F0580FFF9C0912F990FBB
:10363000990F990F392F395F80E023E090930601AD
:10364000809309013093070120930A0124E630E0BA
:1036500047E050E064E071E088E70E941C2B892B72
:1036600009F074C080E2189FA001112480914F05D9
:1036700080FFE7C0E0EFF2E080E211928A95E9F77F
:1036800072E2672E71E0772E8EE191E04C0126E226
:1036900031E0D301ED913D01D4010D914D01040FB5
:1036A000152F111DF0E0E051FD4F80E090E067E044
:1036B000B62EB81ACC24C394082E01C0CC0C0A94A0
:1036C000EAF7B801695B7C4F2B01E12CD201FD9038
:1036D0002D01FC206B2D6E19677070E0AF2D062E4A
:1036E00001C0AA0F0A94EAF7DA2E71956195710963
:1036F000677001C0F6946A95EAF7DF286081D62AE0
:10370000D082E3946E2D683009F7019631968830A7
:10371000910569F62615370509F0BBCF04E610E0E0
:1037200020E230E040EF52E060E488E70E94D42BD2
:10373000892B61F4C095D095809145039091460303
:10374000C823D923C0934503D093460380914805ED
:103750008115B1F00E940113C0914A05D0914B052B
:10376000E0914C05F0914D05DC01CB018C1B9D0BCC
:10377000AE0BBF0B8F3F9F4FAF4FBF4708F4B1DE7B
:10378000DF91CF911F910F91FF90EF90DF90CF903D
:10379000BF909F908F907F906F905F904F90089513
:1037A00088E290E0A0E0B0E0D4CEC090E402D090F7
:1037B000E502E090E602F090E7020E940113DC01CE
:1037C000CB018C199D09AE09BF0981369A4EA1051E
:1037D000B10510F086DEF9CEC090E802D090E90283
:1037E000E090EA02F090EB020E940113DC01CB01B1
:1037F0008C199D09AE09BF0985369105A105B10552
:1038000008F4E3CE0E9401136093E8027093E9028A
:103810008093EA029093EB020E94DD11D6CE20E263
:10382000129FC0011124880F492F441F550B519539
:10383000242F912F9295990F9076392F315E842FF6
:10384000FDCE495B5C4F04E610E020E230E06CCF37
:103850001F921FB61F9211248F939F93AF93BF9314
:103860008091BC029091BD02A091BE02B091BF02B6
:103870004196A11DB11D8093BC029093BD02A093FF
:10388000BE02B093BF02BF91AF919F918F911F90E5
:103890001FBE1F9018952FB7F8948091BC0290918D
:1038A000BD02A091BE02B091BF022FBF0895CF9379
:1038B000DF93EC01F0DF8C1B9D0BDF91CF9108951E
:1038C00060911D066695669570E041E050E08DE0E0
:1038D00091E00E945B2D892B19F481E080931C06F6
:1038E000DADF80937D0590937E05089590911D0603
:1038F00090FF2CC0811559F18F3158F58F73880FC7
:10390000880F90911D069370892B80931D06611579
:1039100019F08DE196E06CDC60911D066695669568
:1039200070E041E050E08DE091E00E945B2D892B3A
:1039300091F010921C0681E08093800520E0409178
:10394000200660911F0680911E068FCC089581E0AD
:10395000D6CF8EE1D4CFB4DFEECF80911D06869511
:1039600086958F5F8F3108F081E061E0BFCF809155
:103970001D0686958695815009F48EE161E0B6CFEB
:103980001092910580919005811549F080911D0656
:10399000816080931D0660E086958695A7DF90CFB5
:1039A0007ADF809372069093730680917106811579
:1039B00019F010927106E4CF0895FF920F931F93B0
:1039C000CF93DF93C62FD42FF22E8115A1F06093F1
:1039D000190661DF8093C4029093C50281E0C1FDA6
:1039E00084E0C0FD880FC2FD8295DFD8CDB7DEB779
:1039F000E5E00C94C62C8091190668132FC0009145
:103A0000C4021091C50247DF801B910B883C9105D1
:103A100028F51D2F105ECD1791F0C77001E0802FA3
:103A200001C0880FCA95EAF7C9D8183040F48D2F25
:103A3000877001C0000F8A95EAF7802FB6D860E042
:103A400070E08F2D9CD881E0D1FD84E0D0FD880FFF
:103A5000D2FD8295183050F6B1D8C8CF81E0C1FDB3
:103A600084E0C0FD880FC2FD8295F6CFA0E0B0E0F3
:103A7000ECE3FDE10C94A72C7C01FC018481811511
:103A800009F44CC061E0C7010E94540FEC01F7013A
:103A90008581811501F1CE0191509F3440F58C2F25
:103AA00090E09C01245031092432310518F08B97A5
:103AB0000E9780F4E0911806F0E0EE0FFF1FEA5138
:103AC000FA4F808191818F3F2FE7920719F001967D
:103AD0008083918365DFF7018581FE01E851FC4712
:103AE000E730F105B8F5E450F24D0C94002DD111FA
:103AF000F1CFCE01D6CF26E241EE61EE5EDF8091BE
:103B00002C06877059F0F7018581811539F0809175
:103B10002E0682FF03C082E00E94DA0CCDB7DEB72A
:103B2000E8E00C94C32C27E245EE65EEE7CF26E2F1
:103B300041EE60EEE3CF27E245EE64EEDFCF26E212
:103B400041EE62EEDBCF27E245EE66EED7CF28E20C
:103B500041E0EBCF811509F414C4109219069E01BF
:103B600030572332310508F0F5C384E090E00E941D
:103B7000822D80932D0690932E06FE01E150F04792
:103B8000E232F10520F4ED5FF14D0C94002D8091AF
:103B90002D06816080932D0660912D0670912E0672
:103BA00084E090E00E94A12D0FD8A9CF80912E062D
:103BB000886080932E06F0CF80912D068260EACF38
:103BC00080912D068460E6CF80912D068860E2CF3B
:103BD00080912E068160EDCF80912E068260E9CF24
:103BE00080912D068061D6CF80912D068062D2CF44
:103BF00080912D068064CECF0E94E41580912D0621
:103C00008068C8CF80912D068C60C4CF80912E062D
:103C10008360CFCF80912D068E7FBCCF80912E0602
:103C2000877FC7CF80912D068D7FB4CF80912D06E1
:103C30008B7FB0CF80912D06877FACCF80912E06F1
:103C40008E7FB7CF80912E068D7FB3CF80912D06CA
:103C50008F7EA0CF80912D068F7D9CCF80912D06E9
:103C60008F7B98CF0E94E41580912D068F7792CF9D
:103C700080912D06837F8ECF80912E068C7F99CFE9
:103C800090912D06892F8B7F92FF8460877F92FF12
:103C9000886080CF80912E06982F909590FB80F9B8
:103CA00090FB81F986CF90912D06892F8F7B96FF0F
:103CB000806470CF0E94E41590912D06892F97FBA8
:103CC00087F9805867CF61E08EE090E00E94872DF1
:103CD00063CF60E0F9CF90912D06892F8F7E94FFFE
:103CE000806158CF90912D06892F8E7F90FF816043
:103CF00051CF90912E06892F877F93FF886059CFEF
:103D000089E24AC39272FE01E052F847EB30F105B6
:103D100008F043C0EB5DF14D0C94002D80911D0621
:103D200080FF0BC08E7F80931D068DE196E060DAE8
:103D300010921C060E943610E2CE816080931D0610
:103D400061E086958695D2DDDACE911521F00FDE01
:103D5000D6CE9115E1F301DED2CE911521F0CDDA68
:103D6000CECE9115E1F3C1DACACE911521F0D8DAA1
:103D7000C6CE9115E1F3C9DAC2CE911521F0E6DA8B
:103D8000BECE9115E1F3D7DABACE911521F063DA00
:103D9000B6CE9115E1F355DAB2CE9E01205E3245E2
:103DA00020323105A0F4811129C0CF7181E090E06B
:103DB00002C0880F991FCA95E2F7EC01682F83E0D3
:103DC00090E00E94872DCE010E94240C98CE811590
:103DD000A9F0CA358CE7D80709F4BBC008F070C059
:103DE000C1308CE7D80709F4B2C0C3308CE7D807DC
:103DF00009F4A7C0C115DC4709F474C0F701858137
:103E000000811181811509F4A8C0C8010E94200F0A
:103E1000C82F682FC8010E944C0CB8018C2F0E943B
:103E20001F0D0E94340ED82FC92FF701D5800681AF
:103E300002950F7080912C06877001F1CD2CD11462
:103E4000F1F0892F807F803461F08D2F805E883083
:103E5000A8F0892F807E803221F4D23078F00115CD
:103E600069F080912E0682FF09C082E00E94DA0C80
:103E700080912C068770CC24C3948111C12C8C2F87
:103E800082958F70883009F453C108F085C0843062
:103E900008F068C0823008F490C01C2F1F70C07FEB
:103EA000C03211F01295107FD13008F4BEC009F471
:103EB00005C1D11409F40FC1011509F4D4C094C08F
:103EC000CB358CE7D80709F446C0CC35DC4709F080
:103ED00095CF80912E06002482FF0394802D0E94AE
:103EE000D2148CCF0E94E4158FEF94E32CE0815024
:103EF00090402040E1F700C0000081E08093E000A6
:103F000080E28093D8001092C9008FE19EE401976F
:103F1000F1F700C00000A7E0B0EBCD018093BA0735
:103F20009093BB07A093BC07B093BD0788E19CE0CA
:103F30000FB6F894A895809360000FBE9093600030
:103F4000FFCF6FEF7FEF80E090E00E94A12D0E94F5
:103F5000011681E0C4CF80E0C2CFC8010E94800C6E
:103F6000C82F5BCF09F4C8C0C11409F41AC18091ED
:103F70002C0680FD16C1F7011582869586958695DB
:103F80000E942E0CC70172DD80912C0686958695C5
:103F900086950E943C0C05C1893009F45AC18A5F9C
:103FA0008F70823008F7D23F09F064C18C2F8F7177
:103FB000D1105DC10E942E0CF0C01C2F1F70C031AB
:103FC00010F01295107FD114B9F0111569F08D2FF2
:103FD000805E883010F0D11109C080912506812BB8
:103FE000809325060E94E9148D2F2FC080912F0603
:103FF000812B80932F06F6CF8D2F0E949A151115D5
:1040000009F4B2CF8D2F805E883010F0D11104C03A
:10401000812F0E94170D06C0109580912F068123D5
:1040200080932F060E94E9149FCF80912E0682FD77
:1040300016C0D11469F0111539F080912506812B35
:10404000809325060E94E91480E00E943F158CCFE2
:1040500080E00E949A15111509F486CFD9CFD114AA
:1040600099F0013020F4812F0E94D5157DCF09F001
:104070007BCF80912606912F9823191709F474CFCE
:10408000812B8093260670CF01116ECF812F0E9465
:10409000DE1590912606812F892329F0812F8095A6
:1040A00089238093260680912706912F982309F46F
:1040B0005BCF109518231093270656CFD11421F00B
:1040C000063008F051CFCFCF053008F04DCF812F0B
:1040D0000E94DE1549CF0115D1F3D93349F48FEF92
:1040E00097EE23E0815090402040E1F700C00000AF
:1040F0008D2F0E949A1538CF8C2F869586958370C8
:10410000813060F009F030CF8D2F9C2F9370D1104B
:1041100002C080E090E00E947B1226CF8D2F9C2F62
:104120009370D11002C080E090E00E9454121CCF26
:104130008C2F837009F048C0D1102FC04D2F4295AD
:1041400046954770440F440F2D2F2F7030E0042EFA
:1041500002C0220F331F0A94E2F780E090E0D4FF00
:1041600009C08FE090E002C0880F991F4A95E2F7DE
:1041700080959095C695C695C370C230E1F0C33066
:10418000B9F04091280650912906C13079F0822B70
:10419000932B842395230E94240C0E9445120E9495
:1041A0001D0C60E0C7010E94540FB8CC242B352BA6
:1041B000822B932BF0CF822B932B209128063091CA
:1041C000290682279327E7CFD11491F1C0FFE5CFCD
:1041D0004D2F429546954770440F440F2D2F2F7059
:1041E00030E0042E02C0220F331F0A94E2F780E071
:1041F00090E0D4FF09C08FE090E002C0880F991FC3
:104200004A95E2F780959095C695C695C370C230E1
:10421000B9F0C33091F040912A0650912B06C1307D
:1042200051F0822B932B842395230E94290CB5CF28
:10423000823070F6B2CF242B352B822B932BF5CF07
:10424000822B932B20912A0630912B0682279327CD
:10425000ECCFCF70D11439F08C2F0E942E0C8D2F03
:104260000E94D5159ACF8D2F0E94DE158C2F0E94AB
:104270003C0C93CF70F4D03FC9F0D13F91F0D114F2
:1042800009F454C0011509F44EC08D2F0E943F154A
:1042900084CFD33F11F1D43F91F790912E0692FD38
:1042A0002AC08C2F8F71D11411F384CED11499F0C0
:1042B000053008F072CFCF7181E090E002C0880F26
:1042C000991FCA95E2F7EC0180912A0690912B067E
:1042D0008C279D27AACF0630ECCF80E090E0D11448
:1042E00009F4A3CFCF7181E090E002C0880F991F3D
:1042F000CA95E2F79ACFD11461F08C2F8F7192FF9B
:1043000059CE982F990F990F990F936090932C067F
:1043100051CE81E00E94DA0C023008F43ECF82E0F8
:104320000E94DA0C3ACF8C2F8F7144CE011579F0B0
:10433000D93349F48FEF97EE23E08150904020402D
:10434000E1F700C000008D2F0E949A1526CF8C2F18
:104350008F718DCF90912506C6312CE7D20709F0D9
:10436000D1CC9A7A81E0911101C080E080931A0645
:1043700085E3911101C089E20E94A2120E94E91412
:10438000BECBC6319CE7D90709F007CD80911A064C
:10439000811509F4B5CC85E30E94D612EFCF809148
:1043A0007006803170F480916F06811551F0E091B4
:1043B00031062091300630916B0640916A062E132B
:1043C00001C00895BF0187E0E89FF0011124DF01DB
:1043D000AE5CB94F14968C911497811551F11196DA
:1043E0008C911197831325C08C91841322C015964C
:1043F0008C91159781111DC012968D919D91A09160
:104400006C06B0916D068A1B9B0B883C910588F465
:10441000809170068F70806180937006E85CF94F20
:1044200080818F70806180838AE696E01FDB0C9428
:10443000D00C6F5F7F4FFB01E770C1CFADE0B0E004
:10444000E4E2F2E20C94A22C8C0186E0F801DE0199
:10445000189601900D928A95E1F7F801F580C480D5
:104460008AE6882E86E0982E70906E0671101FC026
:10447000C114D1F0F11409F415C1C8010E94790FDB
:10448000811509F40FC187E0F801D40101900D9264
:104490008A95E1F78C2D813031F480916A069091F4
:1044A0006B060E946F0F7BDFFF24F39453C0E08004
:1044B000A280B380D0906F0680916C0690916D06BB
:1044C0009501281B390BD11409F4B5C0283C3105DE
:1044D00008F08DC0C11441F390916B06C1808091AA
:1044E0007006803108F056C0C91213C090916A0658
:1044F0009E110FC0F11048C08F70806180937006CC
:104500008AE696E0B3DA80917006F8018683F12C92
:1045100021C0F11039C040E06C2D8E2D0E94B10CED
:1045200040E06C2D8E2D0E94B10CF82E8111EFCF42
:10453000888599850E946F0F292F22952F709034BE
:1045400070F49F70223098F09115A9F0F8019681CF
:10455000903188F48F2D2D96EDE00C94BE2C2A5FBF
:104560002F70223060F0C80181DAFD2CF3CF911555
:1045700011F0811579F3805E883060F3F4CF803FCD
:1045800048F3815F8330F9CF80917006816080931A
:104590007006BDCFC91207C090916A069E1103C074
:1045A000F11409F469C0C8010E94790F811509F45A
:1045B00079C0F11409F476C080917006803270F0F1
:1045C00020916A0630916B0629833A83AB82BC82C4
:1045D0007D821E828F83CE01019648DA87E0F80142
:1045E000AAE6B6E001900D928A95E1F75CCF809142
:1045F0007006803148F48AE696E038DAF40187E004
:1046000011928A95E9F783CFC11409F44DCF209117
:104610006B0691812913C7CF90916A069E11C3CF73
:10462000F110C1CF8683C80121DAF40187E011922D
:104630008A95E9F739CF283C310500F7C11409F410
:1046400033CFF11479F190916B068181981320C0DA
:1046500080916A068E111CC08091700680FD0FC08B
:10466000803168F08683807F803F39F08681982F83
:10467000907F905F8F70892B8683C801F7D987E080
:10468000F801AAE6B6E001900D928A95E1F70CCF09
:10469000C8010E94790F8111A1CF809170068160BD
:1046A00080937006C801E2D9FFCEABE1B0E0EBE544
:1046B000F3E20C94AB2C4E8B5F8B688F798F8A8FD3
:1046C000192F9B8F911110922F061D8A86E0FE01F3
:1046D0007696DE011F9601900D928A95E1F70A8D7C
:1046E000011561F00B8B1C8B61E0CE010F960E94CF
:1046F000540F61E0CE010F960E94540F0B8B1C8B60
:1047000087E0FE013F96DE01189601900D928A9592
:10471000E1F7CE01089692DE81112EC0209130067D
:104720003091310687E0AE01485F5F4FFA01475094
:104730005109DA0101900D928A95E1F78C85811576
:10474000D9F0822F90E08395877090E0AC01341708
:104750001506E1F097E0929FD0011124AE5CB94FAD
:104760009E012F5F3F4FF90101900D929A95E1F75D
:10477000409330060E94D00C809131069091300613
:10478000891311C06B96E4E00C94C72C0E94E415C9
:104790001092300610923106EAE6F6E087E01192B8
:1047A0008A95E9F7E9CF27E0829FC00111248E5C4A
:1047B000994F44DE811531F3809131069091320694
:1047C0000196877080933106D7CFA6E0B0E0EBEE7C
:1047D000F3E20C94AB2C5FD88C0180919205909100
:1047E00093058017910769F019821A8254D8BC0189
:1047F00049815A8180E090E058DF00939205109340
:1048000093052696E4E00C94C72C00D000D000D08D
:10481000CDB7DEB785B7806885BF85B7806885BFAF
:1048200084B7877F84BF0FB6F894A8958091600005
:10483000886180936000109260000FBE80E890E075
:104840000FB6F89480936100909361000FBE81E0F1
:1048500080931C0184EA9FE080937E0290937F0204
:104860000E9437140E94E8138091E20084608093D4
:10487000E200789480914403811599F08091E900D9
:104880001091EC008F7010FB112717F9182B109264
:10489000E9008091E80083FD0E9416161F701093B6
:1048A000E90082E084BD93E095BD9AEF97BD8093C7
:1048B0006E00E6E8F5E088E011928A95E9F781E07C
:1048C0008093850560E080E00E941A1261E080E03C
:1048D0000E941A128FE891E00197F1F700C00000E2
:1048E00010E080918505181708F4F4C129E431E03F
:1048F000A5E4B1E061E070E08D91E82FE295EF7002
:10490000EF5DF0E040818F708B0101C0000F8A9550
:10491000EAF7802F842B80832A173B0769F7A5E4E9
:10492000B1E061E070E08D91E82FE295EF70EE5D0F
:10493000F0E040818F708B0101C0000F8A95EAF78B
:10494000802F8095842380832A173B0761F72EE40C
:1049500031E0A9E4B1E001E010E08D91E82FE295AB
:10496000EF70F0E041A18F70602F01C0660F8A9553
:10497000EAF7962F9095942391A392A1862F892BE5
:1049800082A32A173B0749F7E4E5F5E08AE0119294
:104990008A95E9F7EEE5F5E08AE011928A95E9F764
:1049A00080E090E00E94822D833E9E4F51F163EEA5
:1049B0007EEF80E090E00E94A12D60E082E090E038
:1049C0000E94872D009328061093290661E083E05A
:1049D00090E00E94872D60E074E184E090E00E9406
:1049E000A12D0E94121960E070E0AB018FE090E011
:1049F0000E94992D60E070E0AB0183E190E00E949D
:104A0000992D82E090E00E94752D8093680584E0E6
:104A100090E00E94822D80932D0690932E0683E0D5
:104A200090E00E94752D90E00E94240C10924F059A
:104A300080E880934E05CDD56BE070E086E295E18D
:104A40000E94421A8115C1F180914F0565E070E026
:104A500081FD52C181E295E10E94421A811561F106
:104A60006DE070E08FE095E10E94421A811521F11E
:104A70000E940113DC01CB01805A9541AF4FBF4F1B
:104A800080934A0590934B05A0934C05B0934D0538
:104A9000E7E4F3E080E092E011920197E9F78FEF0D
:104AA0009FEF809345039093460381E080934905EF
:104AB000809348051092470580915005811128C0C8
:104AC0008DE196E00E94B91880911D06843008F0AF
:104AD00016C10E9412198DE196E00E94B9188091CA
:104AE0001D06843008F00BC18370846080931D061E
:104AF00010921C060E94381280911D0680FF05C08E
:104B000060E0869586950E94761C81E08093500532
:104B10008EE091E08093B4059093B50580E090E03D
:104B2000B12CA5E4B1E040E050E02D91E22FE295F8
:104B3000EF70EE5DF0E02F7061E001C0660F2A9526
:104B4000EAF7062F61E070E0042E02C0660F771FBF
:104B50000A94E2F768237923042E02C075956795BD
:104B60000A94E2F73081202F611509F4D0C0232B7D
:104B700020834F5F5F4F44305105B9F62AE12A95F3
:104B8000F1F700C0E4E5F5E041E050E060E070E0FE
:104B9000082E04C0440F551F661F771F0A94D2F7D2
:104BA0006A019A012095309549E4842E41E0942EC3
:104BB000A12C41915191D401FD904D016F2D629531
:104BC0006F70605E70E0DB016C91AF2DAF7002C062
:104BD00075956795AA95E2F760FD9CC0B601642BB8
:104BE000752B7F01A2E0EA1AF108D7016D937D933E
:104BF00011E06417750709F410E0A12A4EE555E0AD
:104C00004E175F07B1F6BA2801968031910509F079
:104C100088CFB11409F482C081E0809353050E94CB
:104C20004B1C809351059093520529E6A22E25E056
:104C3000B22E3EE5432E35E0532EF201D5012D91E3
:104C40003D918081918143E755E04A175B0709F464
:104C50008AC032962817390791F310E0F201E190EB
:104C6000F1902F01F501819091905F018E149F04C6
:104C700049F18E249F2400E091E0C92ED12CC4017B
:104C80008C219D21892BB1F009831A830E944B1C32
:104C90008B839C8381E08D8391E097012C213D21C2
:104CA000232B09F490E09E8349815A816B817C819A
:104CB0008D81FBDC0F5FCC0CDD1C003101F7F501B1
:104CC000F292E2921F5F153049F60E940113AA2466
:104CD000A3944FC060E0812F0E942C12082F61E046
:104CE000812F0E942C12E12FF0E0EC57FA4F880F31
:104CF000802B80831F5FF5CD8CE195E1ADCE809157
:104D00001D068C3708F4F4CE83708867EFCE2095AB
:104D100023232ECFBA016223732363CF80915305DF
:104D2000811509F482CFE0905105F09052050E9460
:104D30004B1C8E199F090A9708F477CF4AE050E080
:104D400064E575E08EE595E0C3D6892B49F08AE0ED
:104D5000E4E5F5E0AEE5B5E001900D928A95E1F766
:104D60001092530562CF2817390709F076CF2DDD51
:104D7000A12CC090E605D090E705ED2CEE0CEE08D6
:104D8000FE2CB0901801E6EEF5E081E090E0B81658
:104D900019060CF0F7C04090790550907A056090A4
:104DA0007B0570907C050E940113641975098609C2
:104DB00097093B014C019601A701F7FE03C020E0D3
:104DC00030E0A901A0E6BAEEECD61B012C0128ECDC
:104DD000B29EC00111249301A401092E000C000809
:104DE000280F391F401D501DA5E0B0E0DAD69B0109
:104DF000AC01B101C2017FD519012A0181EF28164A
:104E000031044104510410F000EF202E89EC6816A3
:104E10007104810491040CF18091180690E00196D0
:104E200069E170E0DAD580931806880F991F8A51DE
:104E30009A4FFC01108211828B2D883108F087E196
:104E40008F5F809318010E9401136093790570931E
:104E50007A0580937B0590937C0582E0C816D10487
:104E6000E104F1040CF4212CC0907505D090760576
:104E7000E0907705F09078050E9401136C197D0988
:104E80008E099F096B017C0185E6C816D104E104F7
:104E9000F10484F00E940113609375057093760508
:104EA00080937705909378058091740680937405BC
:104EB00020927305B0907405A0917305AB19BB0BDC
:104EC0009601A70178D624E630E040E050E04DD6C8
:104ED000B20EB092740680911C06811509F442C08E
:104EE00080911B06E0911D06E695E695E81BE09390
:104EF0007F058F3009F486C008F050C0863009F471
:104F00006EC0893009F474C0823009F45FC0B0ED1E
:104F1000EB2EB7E0FB2E06EA1FE08091800581159D
:104F200061F0109280050E944B1C80937D05909348
:104F30007E0510928105109282050E944B1C2091E3
:104F40007D0530917E05821B930B8F3F9F4750F468
:104F50002E0D3F1D20937D0530937E058DE795E056
:104F6000F801099580918E05811551F08091880591
:104F700010928E0580938905809186058093870520
:104F8000E12CA3C0329620813181032E000C000851
:104F9000C20ED31EE01CF01C0196F9CEA4EFEA2E3F
:104FA000A1E0FA2E00E611E1883109F4B6CF89318B
:104FB00009F432C0853109F0AACFF0E0EC5CFA4E7A
:104FC000E491EE2EF12C08E111E1A7CFF0E0E05CD6
:104FD000FA4EE491EE2EF12C05E810E19ECFF0E0C0
:104FE000E35CFA4EE491EE2EF12C06E710E195CF4A
:104FF000E695F0E0E65CFA4EE491EE2EF12C08E93D
:1050000010E18BCFE695F0E0E95CFA4EE491EE2EEC
:10501000F12C0EEB10E181CF8E2F63E0C5D4E92F88
:10502000F0E0EF5CFA4EE491EE2EF12C01EB19E189
:1050300074CFC0908905F090880561E08E2D0E94A4
:105040002C12D82E60E08E2D0E942C12DD0CD82A56
:105050002E2D30E0D901AC57BA4FEC918E2F8370D2
:10506000D81691F1EE0FEE0FED29EC93EF70F0E012
:10507000E25BFE4F2D573A4F8081F9019081890FF5
:1050800084300CF47FC04F2D50E0BA0163956370FB
:1050900070E0C616170681F04A575A4F9E2D9F772B
:1050A000FA0194839F2D9F5F937090938805909150
:1050B00086059F5F90938605982F990F990B64E062
:1050C00070E08BD4F9018083E39480918505E81624
:1050D00008F4AFCF90E080918905209188052817CA
:1050E00009F48DC0E82FF0E0E657FA4FF0808F5FAB
:1050F000837080938905809187058F5F80938705F2
:1051000040912A0650912B0660E070E0852F90E0D8
:10511000DB0128E010979040804011F4CA0120E0A4
:10512000AC01BD01F4E07695679557954795FA95E2
:10513000D1F7411551056105710519F02C5FCA01C0
:10514000DB01AC01BD01E2E0769567955795479587
:10515000EA95D1F7411551056105710519F02E5FEA
:10516000CA01DB01B695A79597958795820F823086
:1051700059F18330C9F0813051F1F7FE3DC00E94F2
:105180009B1929C08D3F0CF097CF4F2D50E0BA01ED
:105190006395637070E0C616170609F48DCF4A5701
:1051A0005A4F9E2D90687CCFF7FE09C00E9485194A
:1051B0000E9475190E94D01CF7FC0FC019C00E94F4
:1051C00090190E947D19F6CFF7FEFBCFF1CFF7FEC5
:1051D0000BC00E94AD1C0E94D01C6AE070E089EAFE
:1051E0000E94BF1591E077CF0E94B71C0E94D01C8F
:1051F0006AE070E08AEAF4CF0E94A619F7CF911511
:1052000039F00E9401130E94821A0E944F1A04C0B2
:105210000E94821AA110F9CF0E944512F82E8091A7
:105220008F05F81639F0F0928F050E9401138F2D2B
:105230000E941D0C80917106811170CC0091720644
:10524000109173060E944B1C801B910B81369A4E65
:1052500008F464CC10921C068091910581110EC057
:1052600081E08093910580911D06982F9170909315
:1052700090058E7F80931D060E94361081E08093FA
:1052800071064CCC78941F921FB61F9211248F93F5
:105290009F93AF93BF938091BC029091BD02A09168
:1052A000BE02B091BF020196A11DB11D8093BC0248
:1052B0009093BD02A093BE02B093BF02BF91AF9185
:1052C0009F918F911F901FBE1F9018951F920F9254
:1052D0000FB60F9211242F933F934F935F936F93C9
:1052E0007F938F939F93AF93BF93EF93FF9380919F
:1052F000E10082FF09C08091E20082FF05C0809139
:10530000E1008B7F8093E1008091DA0080FF24C070
:105310008091D80080FF20C08091DA008E7F80933A
:10532000DA008091D90080FFB1C080E189BD82E1BF
:1053300089BD09B400FEFDCF81E0809344038091D4
:10534000AB02811109C00E9437140E94E8138091BA
:10535000E20084608093E2008091E10080FF1AC047
:105360008091E20080FF16C08091E2008E7F8093E2
:10537000E2008091E20080618093E2008091D80099
:1053800080628093D80019BC85E08093440383E059
:1053900080931C018091E10084FF37C08091E2007E
:1053A00084FF33C080E189BD82E189BD09B400FE7C
:1053B000FDCF8091D8008F7D8093D8008091E1004F
:1053C0008F7E8093E1008091E2008F7E8093E200E7
:1053D0008091E20081608093E2008091AA028115B1
:1053E00009F45AC084E0809344030E94E4150E94AB
:1053F00045120E941D0C0E94C01C80914403843001
:1054000009F052C082E080931C018091E10083FF8B
:105410002CC08091E20083FF28C08091E100877F4B
:105420008093E10082E0809344031092AA0280916D
:10543000E1008E7F8093E1008091E2008E7F809377
:10544000E2008091E20080618093E20042E060E04F
:1054500080E00E9468138091F00088608093F000E3
:1054600081E080931C0180931B01FF91EF91BF911C
:10547000AF919F918F917F916F915F914F913F91EC
:105480002F910F900FBE0F901F90189519BC10927E
:1054900044031092AB0260CF8091E30087FF02C00B
:1054A00083E0A1CF81E09FCF81E0ADCF1F920F922B
:1054B0000FB60F9211241F932F933F934F935F9337
:1054C0006F937F938F939F93AF93BF93CF93DF930C
:1054D000EF93FF93E9EEF0E080811091EC008F7084
:1054E00010FB112717F9182B1082C0EFD0E088812C
:1054F000877F888378940E941616E9EEF0E0108288
:105500008881886088831F701083FF91EF91DF91FD
:10551000CF91BF91AF919F918F917F916F915F914B
:105520004F913F912F911F910F900FBE0F901F90A1
:105530001895EF92FF920F931F93CF93DF93C82F8D
:105540008B011092BC0084EA8093BC000E944B1C2B
:105550007C018091BC0087FF26C08091B900887FC4
:10556000883029F08091B900887F803179F5C09327
:10557000BB0084E88093BC000E944B1CEC0180912E
:10558000BC0087FF1CC02091B900287F80E090E01C
:10559000283189F081E090E0203409F480E0919591
:1055A0008195910908C0C7010E94571C0817190767
:1055B00080F68EEF9FEFCDB7DEB7E6E0E6C1CE0115
:1055C0000E94571C08171907D0F6F3CF8FEF9FEFF3
:1055D000F2CF1092B9008CE08093B80008950F9339
:1055E0001F93CF93DF93EB018093BB0084E88093FC
:1055F000BC000E944B1C8C018091BC0087FF10C036
:105600002091B900287F81E090E0283209F480E001
:10561000919581959109DF91CF911F910F910895F7
:10562000CF3FDC0749F3C8010E94571CC817D907B0
:1056300018F78EEF9FEFEFCF6F927F929F92AF920E
:10564000BF92CF92DF92EF92FF920F931F93CF936F
:10565000DF93B82EA62E972E6A0189010E944B1C5B
:105660003C010431110558F10F3F100761F1C801E9
:1056700064E170E02CD1F62EE72E6F2D7E2D8B2D60
:1056800058DFEC01892B11F5EA2CF92CCE0CDF1C2C
:10569000EC14FD0411F0209719F184E98093BC000B
:1056A000CE01DF91CF911F910F91FF90EF90DF908E
:1056B000CF90BF90AF909F907F906F900895FF2400
:1056C000F394E12CDACF85E0F82EFBCF0F3F1007E3
:1056D000A1F2C3010E94571C0817190770F6D4CF16
:1056E000B801F70181917F017ADFEC01D1CF6F9290
:1056F0007F929F92AF92BF92CF92DF92EF92FF92F2
:105700000F931F93CF93DF93B82EA62E972E6A0187
:1057100089010E944B1C3C010431110558F10F3FD7
:10572000100761F1C80164E170E0D1D0F62EE72ED8
:105730006F2D7E2D8B2DFDDEEC01892B11F5EA2CD2
:10574000F92CCE0CDF1CEC14FD0411F0209719F19C
:1057500084E98093BC00CE01DF91CF911F910F911E
:10576000FF90EF90DF90CF90BF90AF909F907F9091
:105770006F900895FF24F394E12CDACF85E0F82EA2
:10578000FBCF0F3F1007A1F2C3010E94571C08175F
:10579000190770F6D4CFF7018491B80120DFEC012E
:1057A0008FEFE81AF80ACFCFA0E0B0E0E9EDFBE216
:1057B000C8C0B82EA62E942E852E6901E8010E943D
:1057C0004B1C3C010431110508F10F3F100711F18A
:1057D000C80164E170E07BD0F62EE72E6F2D7E2DA0
:1057E0008B2DA7DE8C01892BC1F0CF3FDC07B1F3F5
:1057F000C3010E94571CC817D90780F784E980931A
:10580000BC00C801CDB7DEB7EEE0B7C0FF24F3940B
:10581000E12CE4CF85E0F82EFBCFBE018A2DDFDE40
:105820008C01E92CF82CCE0CDF1CEC14FD0431F3B8
:105830000115110519F7BE01F70181917F01CFDE36
:105840008C01F3CF8F938FB78F939F93EF93FF9339
:105850009091B9068091B80698130AC088E98093A0
:10586000C900FF91EF919F918F918FBF8F911895F4
:105870008091B8068F5FE82FF0E0E654F94F9081F1
:105880009093CE008093B806ECCF2F932FB72F9331
:105890008F939F93EF93FF939091CE008091770623
:1058A0008F5F803408F080E020917606281739F069
:1058B000E82FF0E0E858F94F908380937706FF9146
:1058C000EF919F918F912F912FBF2F911895AA1B28
:1058D000BB1B51E107C0AA1FBB1FA617B70710F0DB
:1058E000A61BB70B881F991F5A95A9F7809590950D
:1058F000BC01CD010895A1E21A2EAA1BBB1BFD011C
:105900000DC0AA1FBB1FEE1FFF1FA217B307E4079E
:10591000F50720F0A21BB30BE40BF50B661F771FF6
:10592000881F991F1A9469F76095709580959095D6
:105930009B01AC01BD01CF0108952F923F924F9280
:105940005F926F927F928F929F92AF92BF92CF920F
:10595000DF92EF92FF920F931F93CF93DF93CDB718
:10596000DEB7CA1BDB0B0FB6F894DEBF0FBECDBF90
:1059700009942A88398848885F846E847D848C8461
:105980009B84AA84B984C884DF80EE80FD800C816A
:105990001B81AA81B981CE0FD11D0FB6F894DEBF4D
:1059A0000FBECDBFED010895992778E0880F991FAC
:1059B000961708F0961B881F7A95C9F78095089569
:1059C00087FB082E062687FD819567FD6195ECDF34
:1059D0000EF4919507FC8195089597FB072E16F418
:1059E000009406D077FD08D072DF07FC05D03EF4A6
:1059F000909581959F4F0895709561957F4F08957B
:105A0000EE0FFF1F0590F491E02D09948F929F9265
:105A1000AF92BF92CF92DF92EF92FF92CF93DF933C
:105A2000EC01688179818A819B816115710581050D
:105A3000910521F464E279ED8BE597E02DE133EFF8
:105A400041E050E092D049015A019B01AC01A7EA24
:105A5000B1E4A7D06B017C01ACEEB4EFA5019401D9
:105A6000ACD0DC01CB018C0D9D1DAE1DBF1DB7FF61
:105A700003C00197A109B04888839983AA83BB8397
:105A80009F77DF91CF91FF90EF90DF90CF90BF9005
:105A9000AF909F908F900895B9CF80E091E0B6CFFE
:105AA000B0E0A0E08093000190930101A093020177
:105AB000B09303010895FC014150504030F0019033
:105AC0000616D1F73197CF010895882799270895B1
:105AD000FB01DC0104C08D910190801921F441503B
